{
  "address": "0x6a24A365D715BF61Dd82D6b158dbCfFb69558F80",
  "abi": [
    {
      "anonymous": false,
      "inputs": [
        {
          "indexed": false,
          "internalType": "address",
          "name": "nftContractAddress",
          "type": "address"
        },
        {
          "indexed": false,
          "internalType": "uint256",
          "name": "tokenId",
          "type": "uint256"
        },
        {
          "indexed": false,
          "internalType": "address",
          "name": "seller",
          "type": "address"
        },
        {
          "indexed": false,
          "internalType": "address",
          "name": "buyer",
          "type": "address"
        },
        {
          "indexed": false,
          "internalType": "uint256",
          "name": "bidIdx",
          "type": "uint256"
        }
      ],
      "name": "BidAccepted",
      "type": "event"
    },
    {
      "anonymous": false,
      "inputs": [
        {
          "indexed": false,
          "internalType": "address",
          "name": "nftContractAddress",
          "type": "address"
        },
        {
          "indexed": false,
          "internalType": "uint256",
          "name": "tokenId",
          "type": "uint256"
        },
        {
          "indexed": false,
          "internalType": "address",
          "name": "seller",
          "type": "address"
        },
        {
          "indexed": false,
          "internalType": "address",
          "name": "buyer",
          "type": "address"
        },
        {
          "indexed": false,
          "internalType": "uint256",
          "name": "bidIdx",
          "type": "uint256"
        }
      ],
      "name": "BidCanceled",
      "type": "event"
    },
    {
      "anonymous": false,
      "inputs": [
        {
          "indexed": false,
          "internalType": "address",
          "name": "nftContractAddress",
          "type": "address"
        },
        {
          "indexed": false,
          "internalType": "uint256",
          "name": "tokenId",
          "type": "uint256"
        },
        {
          "indexed": false,
          "internalType": "address",
          "name": "seller",
          "type": "address"
        },
        {
          "indexed": false,
          "internalType": "address",
          "name": "buyer",
          "type": "address"
        },
        {
          "indexed": false,
          "internalType": "uint256",
          "name": "bidIdx",
          "type": "uint256"
        }
      ],
      "name": "BidRevoked",
      "type": "event"
    },
    {
      "anonymous": false,
      "inputs": [
        {
          "indexed": false,
          "internalType": "address",
          "name": "nftContractAddress",
          "type": "address"
        },
        {
          "indexed": false,
          "internalType": "uint256",
          "name": "tokenId",
          "type": "uint256"
        },
        {
          "indexed": false,
          "internalType": "address",
          "name": "seller",
          "type": "address"
        },
        {
          "indexed": false,
          "internalType": "address",
          "name": "buyer",
          "type": "address"
        },
        {
          "indexed": false,
          "internalType": "uint256",
          "name": "bidIdx",
          "type": "uint256"
        },
        {
          "indexed": false,
          "internalType": "uint256",
          "name": "newAmount",
          "type": "uint256"
        }
      ],
      "name": "BidUpdated",
      "type": "event"
    },
    {
      "anonymous": false,
      "inputs": [
        {
          "indexed": false,
          "internalType": "uint8",
          "name": "version",
          "type": "uint8"
        }
      ],
      "name": "Initialized",
      "type": "event"
    },
    {
      "anonymous": false,
      "inputs": [
        {
          "indexed": false,
          "internalType": "address",
          "name": "nftContractAddress",
          "type": "address"
        },
        {
          "indexed": false,
          "internalType": "uint256",
          "name": "tokenId",
          "type": "uint256"
        },
        {
          "indexed": false,
          "internalType": "address",
          "name": "seller",
          "type": "address"
        },
        {
          "indexed": false,
          "internalType": "address",
          "name": "buyer",
          "type": "address"
        },
        {
          "indexed": false,
          "internalType": "uint256",
          "name": "bidAmount",
          "type": "uint256"
        },
        {
          "indexed": false,
          "internalType": "address",
          "name": "paymentToken",
          "type": "address"
        },
        {
          "indexed": false,
          "internalType": "uint256",
          "name": "bidIdx",
          "type": "uint256"
        }
      ],
      "name": "NewBid",
      "type": "event"
    },
    {
      "anonymous": false,
      "inputs": [
        {
          "indexed": false,
          "internalType": "address",
          "name": "nftContractAddress",
          "type": "address"
        },
        {
          "indexed": false,
          "internalType": "uint256",
          "name": "tokenId",
          "type": "uint256"
        },
        {
          "indexed": false,
          "internalType": "address",
          "name": "seller",
          "type": "address"
        }
      ],
      "name": "NftDelisted",
      "type": "event"
    },
    {
      "anonymous": false,
      "inputs": [
        {
          "indexed": false,
          "internalType": "address",
          "name": "nftContractAddress",
          "type": "address"
        },
        {
          "indexed": false,
          "internalType": "uint256",
          "name": "tokenId",
          "type": "uint256"
        },
        {
          "indexed": false,
          "internalType": "address",
          "name": "seller",
          "type": "address"
        },
        {
          "indexed": false,
          "internalType": "enum GhafMarketPlaceLib.BuyTypes",
          "name": "buyType",
          "type": "uint8"
        }
      ],
      "name": "NftListed",
      "type": "event"
    },
    {
      "anonymous": false,
      "inputs": [
        {
          "indexed": false,
          "internalType": "address",
          "name": "nftContractAddress",
          "type": "address"
        },
        {
          "indexed": false,
          "internalType": "uint256",
          "name": "tokenId",
          "type": "uint256"
        },
        {
          "indexed": false,
          "internalType": "address",
          "name": "seller",
          "type": "address"
        },
        {
          "indexed": false,
          "internalType": "address",
          "name": "buyer",
          "type": "address"
        },
        {
          "indexed": false,
          "internalType": "uint256",
          "name": "fee",
          "type": "uint256"
        },
        {
          "indexed": false,
          "internalType": "uint256",
          "name": "payAmount",
          "type": "uint256"
        },
        {
          "indexed": false,
          "internalType": "address",
          "name": "paymentToken",
          "type": "address"
        },
        {
          "indexed": false,
          "internalType": "enum GhafMarketPlaceLib.BuyTypes",
          "name": "buyType",
          "type": "uint8"
        }
      ],
      "name": "NftSold",
      "type": "event"
    },
    {
      "anonymous": false,
      "inputs": [
        {
          "indexed": true,
          "internalType": "address",
          "name": "previousOwner",
          "type": "address"
        },
        {
          "indexed": true,
          "internalType": "address",
          "name": "newOwner",
          "type": "address"
        }
      ],
      "name": "OwnershipTransferred",
      "type": "event"
    },
    {
      "anonymous": false,
      "inputs": [
        {
          "indexed": false,
          "internalType": "address",
          "name": "account",
          "type": "address"
        }
      ],
      "name": "Paused",
      "type": "event"
    },
    {
      "anonymous": false,
      "inputs": [
        {
          "indexed": false,
          "internalType": "address",
          "name": "account",
          "type": "address"
        }
      ],
      "name": "Unpaused",
      "type": "event"
    },
    {
      "inputs": [],
      "name": "MAX_PROTOCOL_FEE",
      "outputs": [
        {
          "internalType": "uint256",
          "name": "",
          "type": "uint256"
        }
      ],
      "stateMutability": "view",
      "type": "function"
    },
    {
      "inputs": [],
      "name": "NATIVE_TOKEN",
      "outputs": [
        {
          "internalType": "address",
          "name": "",
          "type": "address"
        }
      ],
      "stateMutability": "view",
      "type": "function"
    },
    {
      "inputs": [
        {
          "internalType": "address",
          "name": "_nftContractAddress",
          "type": "address"
        },
        {
          "internalType": "uint256",
          "name": "_tokenId",
          "type": "uint256"
        },
        {
          "internalType": "uint256",
          "name": "_bidIdx",
          "type": "uint256"
        }
      ],
      "name": "acceptBid",
      "outputs": [
        {
          "internalType": "bool",
          "name": "",
          "type": "bool"
        }
      ],
      "stateMutability": "nonpayable",
      "type": "function"
    },
    {
      "inputs": [
        {
          "internalType": "address",
          "name": "",
          "type": "address"
        },
        {
          "internalType": "uint256",
          "name": "",
          "type": "uint256"
        },
        {
          "internalType": "uint256",
          "name": "",
          "type": "uint256"
        }
      ],
      "name": "bids",
      "outputs": [
        {
          "internalType": "address",
          "name": "buyerAddress",
          "type": "address"
        },
        {
          "internalType": "uint256",
          "name": "bidAmount",
          "type": "uint256"
        },
        {
          "internalType": "bool",
          "name": "isAccepted",
          "type": "bool"
        },
        {
          "internalType": "address",
          "name": "paymentToken",
          "type": "address"
        }
      ],
      "stateMutability": "view",
      "type": "function"
    },
    {
      "inputs": [
        {
          "internalType": "address",
          "name": "_nftContractAddress",
          "type": "address"
        },
        {
          "internalType": "uint256",
          "name": "_tokenId",
          "type": "uint256"
        },
        {
          "internalType": "uint256",
          "name": "_amount",
          "type": "uint256"
        },
        {
          "internalType": "address",
          "name": "_paymentToken",
          "type": "address"
        }
      ],
      "name": "buyNft",
      "outputs": [
        {
          "internalType": "bool",
          "name": "",
          "type": "bool"
        }
      ],
      "stateMutability": "payable",
      "type": "function"
    },
    {
      "inputs": [
        {
          "internalType": "address",
          "name": "_nftContractAddress",
          "type": "address"
        },
        {
          "internalType": "uint256",
          "name": "_tokenId",
          "type": "uint256"
        },
        {
          "internalType": "uint256",
          "name": "_bidIdx",
          "type": "uint256"
        }
      ],
      "name": "cancelBid",
      "outputs": [
        {
          "internalType": "bool",
          "name": "",
          "type": "bool"
        }
      ],
      "stateMutability": "nonpayable",
      "type": "function"
    },
    {
      "inputs": [
        {
          "internalType": "address",
          "name": "_nftContractAddress",
          "type": "address"
        },
        {
          "internalType": "uint256",
          "name": "_tokenId",
          "type": "uint256"
        }
      ],
      "name": "delistNft",
      "outputs": [
        {
          "internalType": "bool",
          "name": "",
          "type": "bool"
        }
      ],
      "stateMutability": "nonpayable",
      "type": "function"
    },
    {
      "inputs": [
        {
          "internalType": "address",
          "name": "_nftContractAddress",
          "type": "address"
        },
        {
          "internalType": "uint256",
          "name": "_tokenId",
          "type": "uint256"
        },
        {
          "internalType": "uint256",
          "name": "_bidIdx",
          "type": "uint256"
        },
        {
          "internalType": "uint256",
          "name": "_newAmount",
          "type": "uint256"
        }
      ],
      "name": "increaseBid",
      "outputs": [
        {
          "internalType": "bool",
          "name": "",
          "type": "bool"
        }
      ],
      "stateMutability": "payable",
      "type": "function"
    },
    {
      "inputs": [
        {
          "internalType": "uint256",
          "name": "_protocolFee",
          "type": "uint256"
        },
        {
          "internalType": "address",
          "name": "_treasury",
          "type": "address"
        }
      ],
      "name": "initialize",
      "outputs": [],
      "stateMutability": "nonpayable",
      "type": "function"
    },
    {
      "inputs": [
        {
          "internalType": "address",
          "name": "_nftContractAddress",
          "type": "address"
        },
        {
          "internalType": "uint256",
          "name": "_tokenId",
          "type": "uint256"
        },
        {
          "internalType": "enum GhafMarketPlaceLib.BuyTypes",
          "name": "_buyType",
          "type": "uint8"
        }
      ],
      "name": "listNft",
      "outputs": [
        {
          "internalType": "bool",
          "name": "",
          "type": "bool"
        }
      ],
      "stateMutability": "nonpayable",
      "type": "function"
    },
    {
      "inputs": [
        {
          "internalType": "address",
          "name": "",
          "type": "address"
        },
        {
          "internalType": "uint256",
          "name": "",
          "type": "uint256"
        }
      ],
      "name": "nfts",
      "outputs": [
        {
          "internalType": "address",
          "name": "seller",
          "type": "address"
        },
        {
          "internalType": "bool",
          "name": "isSold",
          "type": "bool"
        },
        {
          "internalType": "bool",
          "name": "hasAccepted",
          "type": "bool"
        },
        {
          "internalType": "bool",
          "name": "isListed",
          "type": "bool"
        },
        {
          "internalType": "enum GhafMarketPlaceLib.BuyTypes",
          "name": "buyType",
          "type": "uint8"
        }
      ],
      "stateMutability": "view",
      "type": "function"
    },
    {
      "inputs": [],
      "name": "owner",
      "outputs": [
        {
          "internalType": "address",
          "name": "",
          "type": "address"
        }
      ],
      "stateMutability": "view",
      "type": "function"
    },
    {
      "inputs": [],
      "name": "pause",
      "outputs": [],
      "stateMutability": "nonpayable",
      "type": "function"
    },
    {
      "inputs": [],
      "name": "paused",
      "outputs": [
        {
          "internalType": "bool",
          "name": "",
          "type": "bool"
        }
      ],
      "stateMutability": "view",
      "type": "function"
    },
    {
      "inputs": [],
      "name": "protocolFee",
      "outputs": [
        {
          "internalType": "uint256",
          "name": "",
          "type": "uint256"
        }
      ],
      "stateMutability": "view",
      "type": "function"
    },
    {
      "inputs": [
        {
          "internalType": "address",
          "name": "_nftContractAddress",
          "type": "address"
        },
        {
          "internalType": "uint256",
          "name": "_tokenId",
          "type": "uint256"
        },
        {
          "internalType": "uint256",
          "name": "_amount",
          "type": "uint256"
        },
        {
          "internalType": "address",
          "name": "_paymentToken",
          "type": "address"
        }
      ],
      "name": "putBid",
      "outputs": [
        {
          "internalType": "uint256",
          "name": "_bidIdx",
          "type": "uint256"
        }
      ],
      "stateMutability": "payable",
      "type": "function"
    },
    {
      "inputs": [],
      "name": "renounceOwnership",
      "outputs": [],
      "stateMutability": "nonpayable",
      "type": "function"
    },
    {
      "inputs": [
        {
          "internalType": "uint256",
          "name": "_protocolFee",
          "type": "uint256"
        }
      ],
      "name": "setProtocolFee",
      "outputs": [],
      "stateMutability": "nonpayable",
      "type": "function"
    },
    {
      "inputs": [
        {
          "internalType": "address",
          "name": "_treasury",
          "type": "address"
        }
      ],
      "name": "setTreasury",
      "outputs": [],
      "stateMutability": "nonpayable",
      "type": "function"
    },
    {
      "inputs": [
        {
          "internalType": "address",
          "name": "newOwner",
          "type": "address"
        }
      ],
      "name": "transferOwnership",
      "outputs": [],
      "stateMutability": "nonpayable",
      "type": "function"
    },
    {
      "inputs": [],
      "name": "treasury",
      "outputs": [
        {
          "internalType": "address",
          "name": "",
          "type": "address"
        }
      ],
      "stateMutability": "view",
      "type": "function"
    },
    {
      "inputs": [],
      "name": "unpause",
      "outputs": [],
      "stateMutability": "nonpayable",
      "type": "function"
    },
    {
      "stateMutability": "payable",
      "type": "receive"
    }
  ],
  "transactionHash": "0xd699b2980d315283acf1e0d7a8daabac471c4868f7502f68de9a8ecfb1e53368",
  "args": [],
  "numDeployments": 1,
  "solcInputHash": "0184becd2248ac4c4a3bc647b353cb21",
  "bytecode": "0x608060405234801561001057600080fd5b506129ac806100206000396000f3fe6080604052600436106101395760003560e01c80637c1c9978116100ab578063b0e21e8a1161006f578063b0e21e8a146103b4578063b8ca3b83146103ca578063da35a26f146103df578063e13a40f0146103ff578063f0f442601461041f578063f2fde38b1461043f57610140565b80637c1c99781461032e5780637c9788861461034e5780638456cb591461036e5780638ae45505146103835780638da5cb5b1461039657610140565b806346d02934116100fd57806346d029341461025b578063561c9276146102ae5780635c975abb146102c157806361d027b3146102d9578063715018a6146102f9578063787dce3d1461030e57610140565b806328f2a0c21461014557806331f7d9641461016b5780633290463b146101985780633f4ba83a146101c857806343af356b146101df57610140565b3661014057005b600080fd5b6101586101533660046125f4565b61045f565b6040519081526020015b60405180910390f35b34801561017757600080fd5b50610180600181565b6040516001600160a01b039091168152602001610162565b3480156101a457600080fd5b506101b86101b33660046125c0565b61075c565b6040519015158152602001610162565b3480156101d457600080fd5b506101dd6109dc565b005b3480156101eb57600080fd5b5061024a6101fa366004612551565b60026020908152600092835260408084209091529082529020546001600160a01b0381169060ff600160a01b8204811691600160a81b8104821691600160b01b8204811691600160b81b90041685565b604051610162959493929190612724565b34801561026757600080fd5b5061027b6102763660046125c0565b6109ee565b604080516001600160a01b0395861681526020810194909452911515918301919091529091166060820152608001610162565b6101b86102bc3660046125f4565b610a53565b3480156102cd57600080fd5b5060695460ff166101b8565b3480156102e557600080fd5b50600054610180906001600160a01b031681565b34801561030557600080fd5b506101dd610bd1565b34801561031a57600080fd5b506101dd610329366004612697565b610bd9565b34801561033a57600080fd5b506101b861034936600461257c565b610c37565b34801561035a57600080fd5b506101b8610369366004612551565b610e39565b34801561037a57600080fd5b506101dd61119e565b6101b861039136600461263d565b6111ae565b3480156103a257600080fd5b506037546001600160a01b0316610180565b3480156103c057600080fd5b5061015860015481565b3480156103d657600080fd5b50610158606481565b3480156103eb57600080fd5b506101dd6103fa3660046126af565b6114ae565b34801561040b57600080fd5b506101b861041a3660046125c0565b6115db565b34801561042b57600080fd5b506101dd61043a366004612512565b611a5e565b34801561044b57600080fd5b506101dd61045a366004612512565b611ae0565b6000610469611b59565b816001600160a01b0381166104c55760405162461bcd60e51b815260206004820181905260248201527f476861664d61726b6574506c6163653a2061646472657373206973207a65726f60448201526064015b60405180910390fd5b604051632e6f387760e01b81526001600160a01b0387166004820152602481018690526002604482015273e7F7e517Ef826A171889B1f847E741D60C1d00C490632e6f38779060640160006040518083038186803b15801561052657600080fd5b505af415801561053a573d6000803e3d6000fd5b505060408051608081018252600080825260208201819052918101829052606081019190915291506105699050565b33815260016001600160a01b03851614156105a25784341461059d5760405162461bcd60e51b81526004016104bc90612858565b610626565b6040516323b872dd60e01b81526001600160a01b038516906323b872dd906105d290339030908a90600401612700565b602060405180830381600087803b1580156105ec57600080fd5b505af1158015610600573d6000803e3d6000fd5b505050506040513d601f19601f820116820180604052508101906106249190612677565b505b60208181018681526001600160a01b03868116606085019081528a82166000908152600380865260408083208d845287528083208054600180820183558286529885208a519190940290930180549387166001600160a01b031990941693909317835595518288015587015160029091018054935190941661010002610100600160a81b031991151560ff19909416939093171691909117909155889052546106cf9190612919565b6001600160a01b0388811660008181526002602090815260408083208c84528252918290205482519384529083018b90528316828201523360608301526080820189905291871660a082015260c0810183905290519194507f099bd8f91c5f4fea587a36ba2437cdfdd9cf9254421e9e26682b48f95afdae12919081900360e00190a15050949350505050565b6001600160a01b038316600090815260036020908152604080832085845290915281208054339190849081106107a257634e487b7160e01b600052603260045260246000fd5b60009182526020909120600390910201546001600160a01b0316146108095760405162461bcd60e51b815260206004820152601a60248201527f476861664d61726b6574506c6163653a206e6f74206f776e657200000000000060448201526064016104bc565b6001600160a01b0384166000908152600360209081526040808320868452909152902080548390811061084c57634e487b7160e01b600052603260045260246000fd5b600091825260209091206002600390920201015460ff1615610912576001600160a01b0384166000908152600260209081526040808320868452909152902054600160a01b900460ff16156108e35760405162461bcd60e51b815260206004820152601960248201527f476861664d61726b6574506c6163653a206e667420736f6c640000000000000060448201526064016104bc565b6001600160a01b03841660009081526002602090815260408083208684529091529020805460ff60a81b191690555b6001600160a01b03808516600081815260026020908152604080832088845282528083205493835260038252808320888452909152902080547f2206717382ed98a50d41c9d10a48cb2e4d7929ff50504925b9328b99fdf1122893889388939116918790811061099257634e487b7160e01b600052603260045260246000fd5b60009182526020909120600390910201546040516109be949392916001600160a01b0316908890612759565b60405180910390a16109d284843385611b9f565b5060019392505050565b6109e4611e2c565b6109ec611e86565b565b60036020528260005260406000206020528160005260406000208181548110610a1657600080fd5b60009182526020909120600390910201805460018201546002909201546001600160a01b03918216955091935060ff821692506101009091041684565b6000806001600160a01b0386166000908152600260209081526040808320888452909152902054600160b81b900460ff166001811115610aa357634e487b7160e01b600052602160045260246000fd5b14610aff5760405162461bcd60e51b815260206004820152602660248201527f476861664d61726b6574506c6163653a2062757954797065206973206e6f74206044820152654255594e4f5760d01b60648201526084016104bc565b6001600160a01b03821660011415610b3557823414610b305760405162461bcd60e51b81526004016104bc90612858565b610bb9565b6040516323b872dd60e01b81526001600160a01b038316906323b872dd90610b6590339030908890600401612700565b602060405180830381600087803b158015610b7f57600080fd5b505af1158015610b93573d6000803e3d6000fd5b505050506040513d601f19601f82011682018060405250810190610bb79190612677565b505b610bc885853386866000611ed8565b50949350505050565b6109ec611e2c565b610be1611e2c565b8060641015610c325760405162461bcd60e51b815260206004820152601c60248201527f476861664d61726b6574506c6163653a20696e76616c6964206665650000000060448201526064016104bc565b600155565b6000610c41611b59565b336040516331a9108f60e11b8152600481018590526001600160a01b0391821691861690636352211e9060240160206040518083038186803b158015610c8657600080fd5b505afa158015610c9a573d6000803e3d6000fd5b505050506040513d601f19601f82011682018060405250810190610cbe9190612535565b6001600160a01b031614610d145760405162461bcd60e51b815260206004820152601760248201527f43616c6c6572206973206e6f7420746865206f776e657200000000000000000060448201526064016104bc565b6040516323b872dd60e01b81526001600160a01b038516906323b872dd90610d4490339030908890600401612700565b600060405180830381600087803b158015610d5e57600080fd5b505af1158015610d72573d6000803e3d6000fd5b5050505073e7F7e517Ef826A171889B1f847E741D60C1d00C4639dc05dc08585856002610d9c3390565b6040518663ffffffff1660e01b8152600401610dbc959493929190612819565b60006040518083038186803b158015610dd457600080fd5b505af4158015610de8573d6000803e3d6000fd5b505050507f743f118d87813972873571f72d19e16c1d25c1e7107cd884bb72b6784ddb1eb58484610e163390565b85604051610e2794939291906127e4565b60405180910390a15060019392505050565b6001600160a01b03828116600081815260026020818152604080842087855290915280832054905163676c480f60e01b81526004810194909452602484018690526044840191909152909216606482018190529073e7F7e517Ef826A171889B1f847E741D60C1d00C49063676c480f9060840160006040518083038186803b158015610ec457600080fd5b505af4158015610ed8573d6000803e3d6000fd5b50506040516323b872dd60e01b81526001600160a01b03871692506323b872dd9150610f0c90309085908890600401612700565b600060405180830381600087803b158015610f2657600080fd5b505af1158015610f3a573d6000803e3d6000fd5b5050505060005b6001600160a01b0385166000908152600360209081526040808320878452909152902054811015611100576001600160a01b03851660009081526003602090815260408083208784529091528120805483908110610faf57634e487b7160e01b600052603260045260246000fd5b60009182526020909120600390910201546001600160a01b0316146110ee576001600160a01b03808616600081815260026020908152604080832089845282528083205493835260038252808320898452909152902080547f2d90ac1c059eb788f6122a35a6641a9423c6ab4a03f506fd7204f8d0d8750c8093899389939116918690811061104e57634e487b7160e01b600052603260045260246000fd5b600091825260209091206003909102015460405161107a949392916001600160a01b0316908790612759565b60405180910390a16001600160a01b0385166000908152600360209081526040808320878452909152902080546110ee918791879190859081106110ce57634e487b7160e01b600052603260045260246000fd5b60009182526020909120600390910201546001600160a01b031684611b9f565b806110f881612930565b915050610f41565b506001600160a01b0384811660008181526002602090815260408083208884528252918290205482519384529083018790529092168183015290517fe5eb66cd46c56d8f2e3f3671c821b67775962716c61f5ede46ced2c047c8900f9181900360600190a150506001600160a01b039190911660009081526002602090815260408083209383529290522080546001600160c01b0319169055600190565b6111a6611e2c565b6109ec61207f565b60006111b8611b59565b60408051630e96d5dd60e01b81526001600160a01b038716600482015260248101869052604481018590526064810184905260026084820152600360a48201523360c4820152905173e7F7e517Ef826A171889B1f847E741D60C1d00C491630e96d5dd9160e4808301926000929190829003018186803b15801561123b57600080fd5b505af415801561124f573d6000803e3d6000fd5b505050506001600160a01b0385166000908152600360209081526040808320878452909152812080548590811061129657634e487b7160e01b600052603260045260246000fd5b906000526020600020906003020160010154836112b39190612919565b6001600160a01b0387166000908152600360209081526040808320898452909152812080549293509091869081106112fb57634e487b7160e01b600052603260045260246000fd5b600091825260209091206003909102016002015461010090046001600160a01b03169050600181141561134c578134146113475760405162461bcd60e51b81526004016104bc90612858565b6113d0565b6040516323b872dd60e01b81526001600160a01b038216906323b872dd9061137c90339030908790600401612700565b602060405180830381600087803b15801561139657600080fd5b505af11580156113aa573d6000803e3d6000fd5b505050506040513d601f19601f820116820180604052508101906113ce9190612677565b505b6001600160a01b0387166000908152600360209081526040808320898452909152902080548591908790811061141657634e487b7160e01b600052603260045260246000fd5b60009182526020808320600392909202909101600101929092556001600160a01b038981168083526002845260408084208b85528552928390205483519182529381018a90529216828201523360608301526080820187905260a08201869052517fe74ba9d02c7e3172a8c653bf2bcfaff5cb81fbf933284d0bf440b8c64940aea99181900360c00190a15060019695505050505050565b600454610100900460ff16158080156114ce5750600454600160ff909116105b806114e85750303b1580156114e8575060045460ff166001145b61154b5760405162461bcd60e51b815260206004820152602e60248201527f496e697469616c697a61626c653a20636f6e747261637420697320616c72656160448201526d191e481a5b9a5d1a585b1a5e995960921b60648201526084016104bc565b6004805460ff19166001179055801561156e576004805461ff0019166101001790555b6115766120bc565b61157e6120eb565b61158783610bd9565b61159082611a5e565b80156115d6576004805461ff0019169055604051600181527f7f26b83ff96e1f2b6a682f133852f6798a09c465da95921460cefb38474024989060200160405180910390a15b505050565b60006115e5611b59565b6001600160a01b0384811660009081526002602090815260408083208784529091529020541633146116595760405162461bcd60e51b815260206004820152601a60248201527f476861664d61726b6574506c6163653a206e6f74206f776e657200000000000060448201526064016104bc565b60016001600160a01b0385166000908152600260209081526040808320878452909152902054600160b81b900460ff1660018111156116a857634e487b7160e01b600052602160045260246000fd5b146117055760405162461bcd60e51b815260206004820152602760248201527f476861664d61726b6574506c6163653a2062757954797065206973206e6f742060448201526620aaa1aa24a7a760c91b60648201526084016104bc565b6001600160a01b0384166000908152600260209081526040808320868452909152902054600160a81b900460ff161561178a5760405162461bcd60e51b815260206004820152602160248201527f476861664d61726b6574506c6163653a20616c726561647920616363657074656044820152601960fa1b60648201526084016104bc565b6001600160a01b038416600090815260036020908152604080832086845290915290205482106117fc5760405162461bcd60e51b815260206004820152601c60248201527f476861664d61726b6574506c6163653a20696e76616c6964206964780000000060448201526064016104bc565b6001600160a01b03841660008181526002602090815260408083208784528252808320805460ff60a81b1916600160a81b179055928252600381528282208683529052208054600191908490811061186457634e487b7160e01b600052603260045260246000fd5b600091825260208083206003928302016002908101805460ff1916951515959095179094556001600160a01b038881168085529482526040808520898652835280852054958552928252828420888552909152912080547f0d496e5bb4fa3f063ed8f5f3553ecdcc05d9c45885f4de61327caffd024407fd93889388939116918790811061190257634e487b7160e01b600052603260045260246000fd5b600091825260209091206003909102015460405161192e949392916001600160a01b0316908890612759565b60405180910390a16001600160a01b038416600090815260036020908152604080832086845290915290208054611a539186918691908690811061198257634e487b7160e01b600052603260045260246000fd5b60009182526020808320600392830201546001600160a01b038b8116855292825260408085208b865290925292208054919092169190879081106119d657634e487b7160e01b600052603260045260246000fd5b60009182526020808320600392830201600101546001600160a01b038c16845291815260408084208b8552909152909120805488908110611a2757634e487b7160e01b600052603260045260246000fd5b906000526020600020906003020160020160019054906101000a90046001600160a01b03166001611ed8565b506001949350505050565b806001600160a01b038116611ab55760405162461bcd60e51b815260206004820181905260248201527f476861664d61726b6574506c6163653a2061646472657373206973207a65726f60448201526064016104bc565b611abd611e2c565b50600080546001600160a01b0319166001600160a01b0392909216919091179055565b611ae8611e2c565b6001600160a01b038116611b4d5760405162461bcd60e51b815260206004820152602660248201527f4f776e61626c653a206e6577206f776e657220697320746865207a65726f206160448201526564647265737360d01b60648201526084016104bc565b611b568161211a565b50565b60695460ff16156109ec5760405162461bcd60e51b815260206004820152601060248201526f14185d5cd8589b194e881c185d5cd95960821b60448201526064016104bc565b6001600160a01b0384166000908152600360209081526040808320868452909152902080546001919083908110611be657634e487b7160e01b600052603260045260246000fd5b600091825260209091206003909102016002015461010090046001600160a01b03161415611c73576001600160a01b038416600090815260036020908152604080832086845290915290208054611c6e91849184908110611c5757634e487b7160e01b600052603260045260246000fd5b90600052602060002090600302016001015461216c565b611dad565b6001600160a01b03841660009081526003602090815260408083208684529091529020805482908110611cb657634e487b7160e01b600052603260045260246000fd5b60009182526020808320600392830201600201546001600160a01b0388811685529282526040808520888652909252922080546101009093049091169163a9059cbb91859185908110611d1957634e487b7160e01b600052603260045260246000fd5b60009182526020909120600160039092020101546040516001600160e01b031960e085901b1681526001600160a01b0390921660048301526024820152604401602060405180830381600087803b158015611d7357600080fd5b505af1158015611d87573d6000803e3d6000fd5b505050506040513d601f19601f82011682018060405250810190611dab9190612677565b505b6001600160a01b03841660009081526003602090815260408083208684529091529020805482908110611df057634e487b7160e01b600052603260045260246000fd5b60009182526020822060039091020180546001600160a01b0319168155600181019190915560020180546001600160a81b031916905550505050565b6037546001600160a01b031633146109ec5760405162461bcd60e51b815260206004820181905260248201527f4f776e61626c653a2063616c6c6572206973206e6f7420746865206f776e657260448201526064016104bc565b611e8e612285565b6069805460ff191690557f5db9ee0a495bf2e6ff9c91a7834c1ba4fdd244a5e8aa4e537bd38aeae4b073aa335b6040516001600160a01b03909116815260200160405180910390a1565b6001600160a01b0386166000908152600260209081526040808320888452909152812054600160a01b900460ff1615611f535760405162461bcd60e51b815260206004820152601960248201527f476861664d61726b6574506c6163653a20736f6c64206e66740000000000000060448201526064016104bc565b6040516323b872dd60e01b81526001600160a01b038816906323b872dd90611f8390309089908b90600401612700565b600060405180830381600087803b158015611f9d57600080fd5b505af1158015611fb1573d6000803e3d6000fd5b505050506001600160a01b038716600090815260026020908152604080832089845290915281208054600160a01b60ff60a01b199091161761ffff60a81b19169055611fff888887876122ce565b6001600160a01b03808a1660009081526002602090815260408083208c8452909152908190205490519293507fb994b13bf5ee11fd15d7b0a9ef63605e4d6d7159717150edb6bab98bef14d0b092612067928c928c929116908b9087908c908c908c9061278c565b60405180910390a160019150505b9695505050505050565b612087611b59565b6069805460ff191660011790557f62e78cea01bee320cd4e420270b5ea74000d11b0c9f74754ebdbfc544b05a258611ebb3390565b600454610100900460ff166120e35760405162461bcd60e51b81526004016104bc9061288f565b6109ec6124af565b600454610100900460ff166121125760405162461bcd60e51b81526004016104bc9061288f565b6109ec6124df565b603780546001600160a01b038381166001600160a01b0319831681179093556040519116919082907f8be0079c531659141344cd1fd0a4f28419497f9722a3daafe3b4186f6b6457e090600090a35050565b804710156121bc5760405162461bcd60e51b815260206004820152601d60248201527f416464726573733a20696e73756666696369656e742062616c616e636500000060448201526064016104bc565b6000826001600160a01b03168260405160006040518083038185875af1925050503d8060008114612209576040519150601f19603f3d011682016040523d82523d6000602084013e61220e565b606091505b50509050806115d65760405162461bcd60e51b815260206004820152603a60248201527f416464726573733a20756e61626c6520746f2073656e642076616c75652c207260448201527f6563697069656e74206d6179206861766520726576657274656400000000000060648201526084016104bc565b60695460ff166109ec5760405162461bcd60e51b815260206004820152601460248201527314185d5cd8589b194e881b9bdd081c185d5cd95960621b60448201526064016104bc565b600154600090829084906064906122e69083906128fa565b6122f091906128da565b92506001600160a01b0382166001141561235e576001600160a01b0380881660009081526002602090815260408083208a845290915290205461233d91166123388584612919565b61216c565b821561235957600054612359906001600160a01b03168461216c565b6124a5565b6001600160a01b0387811660009081526002602090815260408083208a84529091529020548184169163a9059cbb91166123988685612919565b6040516001600160e01b031960e085901b1681526001600160a01b0390921660048301526024820152604401602060405180830381600087803b1580156123de57600080fd5b505af11580156123f2573d6000803e3d6000fd5b505050506040513d601f19601f820116820180604052508101906124169190612677565b5082156124a55760005460405163a9059cbb60e01b81526001600160a01b039182166004820152602481018590529083169063a9059cbb90604401602060405180830381600087803b15801561246b57600080fd5b505af115801561247f573d6000803e3d6000fd5b505050506040513d601f19601f820116820180604052508101906124a39190612677565b505b5050949350505050565b600454610100900460ff166124d65760405162461bcd60e51b81526004016104bc9061288f565b6109ec3361211a565b600454610100900460ff166125065760405162461bcd60e51b81526004016104bc9061288f565b6069805460ff19169055565b600060208284031215612523578081fd5b813561252e81612961565b9392505050565b600060208284031215612546578081fd5b815161252e81612961565b60008060408385031215612563578081fd5b823561256e81612961565b946020939093013593505050565b600080600060608486031215612590578081fd5b833561259b81612961565b9250602084013591506040840135600281106125b5578182fd5b809150509250925092565b6000806000606084860312156125d4578283fd5b83356125df81612961565b95602085013595506040909401359392505050565b60008060008060808587031215612609578081fd5b843561261481612961565b93506020850135925060408501359150606085013561263281612961565b939692955090935050565b60008060008060808587031215612652578384fd5b843561265d81612961565b966020860135965060408601359560600135945092505050565b600060208284031215612688578081fd5b8151801515811461252e578182fd5b6000602082840312156126a8578081fd5b5035919050565b600080604083850312156126c1578182fd5b8235915060208301356126d381612961565b809150509250929050565b600281106126fc57634e487b7160e01b600052602160045260246000fd5b9052565b6001600160a01b039384168152919092166020820152604081019190915260600190565b6001600160a01b038616815284151560208201528315156040820152821515606082015260a0810161207560808301846126de565b6001600160a01b039586168152602081019490945291841660408401529092166060820152608081019190915260a00190565b6001600160a01b03898116825260208201899052878116604083015286811660608301526080820186905260a08201859052831660c082015261010081016127d760e08301846126de565b9998505050505050505050565b6001600160a01b03858116825260208201859052831660408201526080810161281060608301846126de565b95945050505050565b6001600160a01b0386811682526020820186905260a082019061283f60408401876126de565b8460608401528084166080840152509695505050505050565b6020808252601c908201527f476861664d61726b6574506c6163653a2077726f6e672076616c756500000000604082015260600190565b6020808252602b908201527f496e697469616c697a61626c653a20636f6e7472616374206973206e6f74206960408201526a6e697469616c697a696e6760a81b606082015260800190565b6000826128f557634e487b7160e01b81526012600452602481fd5b500490565b60008160001904831182151516156129145761291461294b565b500290565b60008282101561292b5761292b61294b565b500390565b60006000198214156129445761294461294b565b5060010190565b634e487b7160e01b600052601160045260246000fd5b6001600160a01b0381168114611b5657600080fdfea2646970667358221220f033381b8a48a83110c45f186dd87ffd9d2395ed719d9c3361ddad716712352664736f6c63430008020033",
  "deployedBytecode": "0x6080604052600436106101395760003560e01c80637c1c9978116100ab578063b0e21e8a1161006f578063b0e21e8a146103b4578063b8ca3b83146103ca578063da35a26f146103df578063e13a40f0146103ff578063f0f442601461041f578063f2fde38b1461043f57610140565b80637c1c99781461032e5780637c9788861461034e5780638456cb591461036e5780638ae45505146103835780638da5cb5b1461039657610140565b806346d02934116100fd57806346d029341461025b578063561c9276146102ae5780635c975abb146102c157806361d027b3146102d9578063715018a6146102f9578063787dce3d1461030e57610140565b806328f2a0c21461014557806331f7d9641461016b5780633290463b146101985780633f4ba83a146101c857806343af356b146101df57610140565b3661014057005b600080fd5b6101586101533660046125f4565b61045f565b6040519081526020015b60405180910390f35b34801561017757600080fd5b50610180600181565b6040516001600160a01b039091168152602001610162565b3480156101a457600080fd5b506101b86101b33660046125c0565b61075c565b6040519015158152602001610162565b3480156101d457600080fd5b506101dd6109dc565b005b3480156101eb57600080fd5b5061024a6101fa366004612551565b60026020908152600092835260408084209091529082529020546001600160a01b0381169060ff600160a01b8204811691600160a81b8104821691600160b01b8204811691600160b81b90041685565b604051610162959493929190612724565b34801561026757600080fd5b5061027b6102763660046125c0565b6109ee565b604080516001600160a01b0395861681526020810194909452911515918301919091529091166060820152608001610162565b6101b86102bc3660046125f4565b610a53565b3480156102cd57600080fd5b5060695460ff166101b8565b3480156102e557600080fd5b50600054610180906001600160a01b031681565b34801561030557600080fd5b506101dd610bd1565b34801561031a57600080fd5b506101dd610329366004612697565b610bd9565b34801561033a57600080fd5b506101b861034936600461257c565b610c37565b34801561035a57600080fd5b506101b8610369366004612551565b610e39565b34801561037a57600080fd5b506101dd61119e565b6101b861039136600461263d565b6111ae565b3480156103a257600080fd5b506037546001600160a01b0316610180565b3480156103c057600080fd5b5061015860015481565b3480156103d657600080fd5b50610158606481565b3480156103eb57600080fd5b506101dd6103fa3660046126af565b6114ae565b34801561040b57600080fd5b506101b861041a3660046125c0565b6115db565b34801561042b57600080fd5b506101dd61043a366004612512565b611a5e565b34801561044b57600080fd5b506101dd61045a366004612512565b611ae0565b6000610469611b59565b816001600160a01b0381166104c55760405162461bcd60e51b815260206004820181905260248201527f476861664d61726b6574506c6163653a2061646472657373206973207a65726f60448201526064015b60405180910390fd5b604051632e6f387760e01b81526001600160a01b0387166004820152602481018690526002604482015273__$6f36ab20fdf9043aa4045132f820d2d401$__90632e6f38779060640160006040518083038186803b15801561052657600080fd5b505af415801561053a573d6000803e3d6000fd5b505060408051608081018252600080825260208201819052918101829052606081019190915291506105699050565b33815260016001600160a01b03851614156105a25784341461059d5760405162461bcd60e51b81526004016104bc90612858565b610626565b6040516323b872dd60e01b81526001600160a01b038516906323b872dd906105d290339030908a90600401612700565b602060405180830381600087803b1580156105ec57600080fd5b505af1158015610600573d6000803e3d6000fd5b505050506040513d601f19601f820116820180604052508101906106249190612677565b505b60208181018681526001600160a01b03868116606085019081528a82166000908152600380865260408083208d845287528083208054600180820183558286529885208a519190940290930180549387166001600160a01b031990941693909317835595518288015587015160029091018054935190941661010002610100600160a81b031991151560ff19909416939093171691909117909155889052546106cf9190612919565b6001600160a01b0388811660008181526002602090815260408083208c84528252918290205482519384529083018b90528316828201523360608301526080820189905291871660a082015260c0810183905290519194507f099bd8f91c5f4fea587a36ba2437cdfdd9cf9254421e9e26682b48f95afdae12919081900360e00190a15050949350505050565b6001600160a01b038316600090815260036020908152604080832085845290915281208054339190849081106107a257634e487b7160e01b600052603260045260246000fd5b60009182526020909120600390910201546001600160a01b0316146108095760405162461bcd60e51b815260206004820152601a60248201527f476861664d61726b6574506c6163653a206e6f74206f776e657200000000000060448201526064016104bc565b6001600160a01b0384166000908152600360209081526040808320868452909152902080548390811061084c57634e487b7160e01b600052603260045260246000fd5b600091825260209091206002600390920201015460ff1615610912576001600160a01b0384166000908152600260209081526040808320868452909152902054600160a01b900460ff16156108e35760405162461bcd60e51b815260206004820152601960248201527f476861664d61726b6574506c6163653a206e667420736f6c640000000000000060448201526064016104bc565b6001600160a01b03841660009081526002602090815260408083208684529091529020805460ff60a81b191690555b6001600160a01b03808516600081815260026020908152604080832088845282528083205493835260038252808320888452909152902080547f2206717382ed98a50d41c9d10a48cb2e4d7929ff50504925b9328b99fdf1122893889388939116918790811061099257634e487b7160e01b600052603260045260246000fd5b60009182526020909120600390910201546040516109be949392916001600160a01b0316908890612759565b60405180910390a16109d284843385611b9f565b5060019392505050565b6109e4611e2c565b6109ec611e86565b565b60036020528260005260406000206020528160005260406000208181548110610a1657600080fd5b60009182526020909120600390910201805460018201546002909201546001600160a01b03918216955091935060ff821692506101009091041684565b6000806001600160a01b0386166000908152600260209081526040808320888452909152902054600160b81b900460ff166001811115610aa357634e487b7160e01b600052602160045260246000fd5b14610aff5760405162461bcd60e51b815260206004820152602660248201527f476861664d61726b6574506c6163653a2062757954797065206973206e6f74206044820152654255594e4f5760d01b60648201526084016104bc565b6001600160a01b03821660011415610b3557823414610b305760405162461bcd60e51b81526004016104bc90612858565b610bb9565b6040516323b872dd60e01b81526001600160a01b038316906323b872dd90610b6590339030908890600401612700565b602060405180830381600087803b158015610b7f57600080fd5b505af1158015610b93573d6000803e3d6000fd5b505050506040513d601f19601f82011682018060405250810190610bb79190612677565b505b610bc885853386866000611ed8565b50949350505050565b6109ec611e2c565b610be1611e2c565b8060641015610c325760405162461bcd60e51b815260206004820152601c60248201527f476861664d61726b6574506c6163653a20696e76616c6964206665650000000060448201526064016104bc565b600155565b6000610c41611b59565b336040516331a9108f60e11b8152600481018590526001600160a01b0391821691861690636352211e9060240160206040518083038186803b158015610c8657600080fd5b505afa158015610c9a573d6000803e3d6000fd5b505050506040513d601f19601f82011682018060405250810190610cbe9190612535565b6001600160a01b031614610d145760405162461bcd60e51b815260206004820152601760248201527f43616c6c6572206973206e6f7420746865206f776e657200000000000000000060448201526064016104bc565b6040516323b872dd60e01b81526001600160a01b038516906323b872dd90610d4490339030908890600401612700565b600060405180830381600087803b158015610d5e57600080fd5b505af1158015610d72573d6000803e3d6000fd5b5050505073__$6f36ab20fdf9043aa4045132f820d2d401$__639dc05dc08585856002610d9c3390565b6040518663ffffffff1660e01b8152600401610dbc959493929190612819565b60006040518083038186803b158015610dd457600080fd5b505af4158015610de8573d6000803e3d6000fd5b505050507f743f118d87813972873571f72d19e16c1d25c1e7107cd884bb72b6784ddb1eb58484610e163390565b85604051610e2794939291906127e4565b60405180910390a15060019392505050565b6001600160a01b03828116600081815260026020818152604080842087855290915280832054905163676c480f60e01b81526004810194909452602484018690526044840191909152909216606482018190529073__$6f36ab20fdf9043aa4045132f820d2d401$__9063676c480f9060840160006040518083038186803b158015610ec457600080fd5b505af4158015610ed8573d6000803e3d6000fd5b50506040516323b872dd60e01b81526001600160a01b03871692506323b872dd9150610f0c90309085908890600401612700565b600060405180830381600087803b158015610f2657600080fd5b505af1158015610f3a573d6000803e3d6000fd5b5050505060005b6001600160a01b0385166000908152600360209081526040808320878452909152902054811015611100576001600160a01b03851660009081526003602090815260408083208784529091528120805483908110610faf57634e487b7160e01b600052603260045260246000fd5b60009182526020909120600390910201546001600160a01b0316146110ee576001600160a01b03808616600081815260026020908152604080832089845282528083205493835260038252808320898452909152902080547f2d90ac1c059eb788f6122a35a6641a9423c6ab4a03f506fd7204f8d0d8750c8093899389939116918690811061104e57634e487b7160e01b600052603260045260246000fd5b600091825260209091206003909102015460405161107a949392916001600160a01b0316908790612759565b60405180910390a16001600160a01b0385166000908152600360209081526040808320878452909152902080546110ee918791879190859081106110ce57634e487b7160e01b600052603260045260246000fd5b60009182526020909120600390910201546001600160a01b031684611b9f565b806110f881612930565b915050610f41565b506001600160a01b0384811660008181526002602090815260408083208884528252918290205482519384529083018790529092168183015290517fe5eb66cd46c56d8f2e3f3671c821b67775962716c61f5ede46ced2c047c8900f9181900360600190a150506001600160a01b039190911660009081526002602090815260408083209383529290522080546001600160c01b0319169055600190565b6111a6611e2c565b6109ec61207f565b60006111b8611b59565b60408051630e96d5dd60e01b81526001600160a01b038716600482015260248101869052604481018590526064810184905260026084820152600360a48201523360c4820152905173__$6f36ab20fdf9043aa4045132f820d2d401$__91630e96d5dd9160e4808301926000929190829003018186803b15801561123b57600080fd5b505af415801561124f573d6000803e3d6000fd5b505050506001600160a01b0385166000908152600360209081526040808320878452909152812080548590811061129657634e487b7160e01b600052603260045260246000fd5b906000526020600020906003020160010154836112b39190612919565b6001600160a01b0387166000908152600360209081526040808320898452909152812080549293509091869081106112fb57634e487b7160e01b600052603260045260246000fd5b600091825260209091206003909102016002015461010090046001600160a01b03169050600181141561134c578134146113475760405162461bcd60e51b81526004016104bc90612858565b6113d0565b6040516323b872dd60e01b81526001600160a01b038216906323b872dd9061137c90339030908790600401612700565b602060405180830381600087803b15801561139657600080fd5b505af11580156113aa573d6000803e3d6000fd5b505050506040513d601f19601f820116820180604052508101906113ce9190612677565b505b6001600160a01b0387166000908152600360209081526040808320898452909152902080548591908790811061141657634e487b7160e01b600052603260045260246000fd5b60009182526020808320600392909202909101600101929092556001600160a01b038981168083526002845260408084208b85528552928390205483519182529381018a90529216828201523360608301526080820187905260a08201869052517fe74ba9d02c7e3172a8c653bf2bcfaff5cb81fbf933284d0bf440b8c64940aea99181900360c00190a15060019695505050505050565b600454610100900460ff16158080156114ce5750600454600160ff909116105b806114e85750303b1580156114e8575060045460ff166001145b61154b5760405162461bcd60e51b815260206004820152602e60248201527f496e697469616c697a61626c653a20636f6e747261637420697320616c72656160448201526d191e481a5b9a5d1a585b1a5e995960921b60648201526084016104bc565b6004805460ff19166001179055801561156e576004805461ff0019166101001790555b6115766120bc565b61157e6120eb565b61158783610bd9565b61159082611a5e565b80156115d6576004805461ff0019169055604051600181527f7f26b83ff96e1f2b6a682f133852f6798a09c465da95921460cefb38474024989060200160405180910390a15b505050565b60006115e5611b59565b6001600160a01b0384811660009081526002602090815260408083208784529091529020541633146116595760405162461bcd60e51b815260206004820152601a60248201527f476861664d61726b6574506c6163653a206e6f74206f776e657200000000000060448201526064016104bc565b60016001600160a01b0385166000908152600260209081526040808320878452909152902054600160b81b900460ff1660018111156116a857634e487b7160e01b600052602160045260246000fd5b146117055760405162461bcd60e51b815260206004820152602760248201527f476861664d61726b6574506c6163653a2062757954797065206973206e6f742060448201526620aaa1aa24a7a760c91b60648201526084016104bc565b6001600160a01b0384166000908152600260209081526040808320868452909152902054600160a81b900460ff161561178a5760405162461bcd60e51b815260206004820152602160248201527f476861664d61726b6574506c6163653a20616c726561647920616363657074656044820152601960fa1b60648201526084016104bc565b6001600160a01b038416600090815260036020908152604080832086845290915290205482106117fc5760405162461bcd60e51b815260206004820152601c60248201527f476861664d61726b6574506c6163653a20696e76616c6964206964780000000060448201526064016104bc565b6001600160a01b03841660008181526002602090815260408083208784528252808320805460ff60a81b1916600160a81b179055928252600381528282208683529052208054600191908490811061186457634e487b7160e01b600052603260045260246000fd5b600091825260208083206003928302016002908101805460ff1916951515959095179094556001600160a01b038881168085529482526040808520898652835280852054958552928252828420888552909152912080547f0d496e5bb4fa3f063ed8f5f3553ecdcc05d9c45885f4de61327caffd024407fd93889388939116918790811061190257634e487b7160e01b600052603260045260246000fd5b600091825260209091206003909102015460405161192e949392916001600160a01b0316908890612759565b60405180910390a16001600160a01b038416600090815260036020908152604080832086845290915290208054611a539186918691908690811061198257634e487b7160e01b600052603260045260246000fd5b60009182526020808320600392830201546001600160a01b038b8116855292825260408085208b865290925292208054919092169190879081106119d657634e487b7160e01b600052603260045260246000fd5b60009182526020808320600392830201600101546001600160a01b038c16845291815260408084208b8552909152909120805488908110611a2757634e487b7160e01b600052603260045260246000fd5b906000526020600020906003020160020160019054906101000a90046001600160a01b03166001611ed8565b506001949350505050565b806001600160a01b038116611ab55760405162461bcd60e51b815260206004820181905260248201527f476861664d61726b6574506c6163653a2061646472657373206973207a65726f60448201526064016104bc565b611abd611e2c565b50600080546001600160a01b0319166001600160a01b0392909216919091179055565b611ae8611e2c565b6001600160a01b038116611b4d5760405162461bcd60e51b815260206004820152602660248201527f4f776e61626c653a206e6577206f776e657220697320746865207a65726f206160448201526564647265737360d01b60648201526084016104bc565b611b568161211a565b50565b60695460ff16156109ec5760405162461bcd60e51b815260206004820152601060248201526f14185d5cd8589b194e881c185d5cd95960821b60448201526064016104bc565b6001600160a01b0384166000908152600360209081526040808320868452909152902080546001919083908110611be657634e487b7160e01b600052603260045260246000fd5b600091825260209091206003909102016002015461010090046001600160a01b03161415611c73576001600160a01b038416600090815260036020908152604080832086845290915290208054611c6e91849184908110611c5757634e487b7160e01b600052603260045260246000fd5b90600052602060002090600302016001015461216c565b611dad565b6001600160a01b03841660009081526003602090815260408083208684529091529020805482908110611cb657634e487b7160e01b600052603260045260246000fd5b60009182526020808320600392830201600201546001600160a01b0388811685529282526040808520888652909252922080546101009093049091169163a9059cbb91859185908110611d1957634e487b7160e01b600052603260045260246000fd5b60009182526020909120600160039092020101546040516001600160e01b031960e085901b1681526001600160a01b0390921660048301526024820152604401602060405180830381600087803b158015611d7357600080fd5b505af1158015611d87573d6000803e3d6000fd5b505050506040513d601f19601f82011682018060405250810190611dab9190612677565b505b6001600160a01b03841660009081526003602090815260408083208684529091529020805482908110611df057634e487b7160e01b600052603260045260246000fd5b60009182526020822060039091020180546001600160a01b0319168155600181019190915560020180546001600160a81b031916905550505050565b6037546001600160a01b031633146109ec5760405162461bcd60e51b815260206004820181905260248201527f4f776e61626c653a2063616c6c6572206973206e6f7420746865206f776e657260448201526064016104bc565b611e8e612285565b6069805460ff191690557f5db9ee0a495bf2e6ff9c91a7834c1ba4fdd244a5e8aa4e537bd38aeae4b073aa335b6040516001600160a01b03909116815260200160405180910390a1565b6001600160a01b0386166000908152600260209081526040808320888452909152812054600160a01b900460ff1615611f535760405162461bcd60e51b815260206004820152601960248201527f476861664d61726b6574506c6163653a20736f6c64206e66740000000000000060448201526064016104bc565b6040516323b872dd60e01b81526001600160a01b038816906323b872dd90611f8390309089908b90600401612700565b600060405180830381600087803b158015611f9d57600080fd5b505af1158015611fb1573d6000803e3d6000fd5b505050506001600160a01b038716600090815260026020908152604080832089845290915281208054600160a01b60ff60a01b199091161761ffff60a81b19169055611fff888887876122ce565b6001600160a01b03808a1660009081526002602090815260408083208c8452909152908190205490519293507fb994b13bf5ee11fd15d7b0a9ef63605e4d6d7159717150edb6bab98bef14d0b092612067928c928c929116908b9087908c908c908c9061278c565b60405180910390a160019150505b9695505050505050565b612087611b59565b6069805460ff191660011790557f62e78cea01bee320cd4e420270b5ea74000d11b0c9f74754ebdbfc544b05a258611ebb3390565b600454610100900460ff166120e35760405162461bcd60e51b81526004016104bc9061288f565b6109ec6124af565b600454610100900460ff166121125760405162461bcd60e51b81526004016104bc9061288f565b6109ec6124df565b603780546001600160a01b038381166001600160a01b0319831681179093556040519116919082907f8be0079c531659141344cd1fd0a4f28419497f9722a3daafe3b4186f6b6457e090600090a35050565b804710156121bc5760405162461bcd60e51b815260206004820152601d60248201527f416464726573733a20696e73756666696369656e742062616c616e636500000060448201526064016104bc565b6000826001600160a01b03168260405160006040518083038185875af1925050503d8060008114612209576040519150601f19603f3d011682016040523d82523d6000602084013e61220e565b606091505b50509050806115d65760405162461bcd60e51b815260206004820152603a60248201527f416464726573733a20756e61626c6520746f2073656e642076616c75652c207260448201527f6563697069656e74206d6179206861766520726576657274656400000000000060648201526084016104bc565b60695460ff166109ec5760405162461bcd60e51b815260206004820152601460248201527314185d5cd8589b194e881b9bdd081c185d5cd95960621b60448201526064016104bc565b600154600090829084906064906122e69083906128fa565b6122f091906128da565b92506001600160a01b0382166001141561235e576001600160a01b0380881660009081526002602090815260408083208a845290915290205461233d91166123388584612919565b61216c565b821561235957600054612359906001600160a01b03168461216c565b6124a5565b6001600160a01b0387811660009081526002602090815260408083208a84529091529020548184169163a9059cbb91166123988685612919565b6040516001600160e01b031960e085901b1681526001600160a01b0390921660048301526024820152604401602060405180830381600087803b1580156123de57600080fd5b505af11580156123f2573d6000803e3d6000fd5b505050506040513d601f19601f820116820180604052508101906124169190612677565b5082156124a55760005460405163a9059cbb60e01b81526001600160a01b039182166004820152602481018590529083169063a9059cbb90604401602060405180830381600087803b15801561246b57600080fd5b505af115801561247f573d6000803e3d6000fd5b505050506040513d601f19601f820116820180604052508101906124a39190612677565b505b5050949350505050565b600454610100900460ff166124d65760405162461bcd60e51b81526004016104bc9061288f565b6109ec3361211a565b600454610100900460ff166125065760405162461bcd60e51b81526004016104bc9061288f565b6069805460ff19169055565b600060208284031215612523578081fd5b813561252e81612961565b9392505050565b600060208284031215612546578081fd5b815161252e81612961565b60008060408385031215612563578081fd5b823561256e81612961565b946020939093013593505050565b600080600060608486031215612590578081fd5b833561259b81612961565b9250602084013591506040840135600281106125b5578182fd5b809150509250925092565b6000806000606084860312156125d4578283fd5b83356125df81612961565b95602085013595506040909401359392505050565b60008060008060808587031215612609578081fd5b843561261481612961565b93506020850135925060408501359150606085013561263281612961565b939692955090935050565b60008060008060808587031215612652578384fd5b843561265d81612961565b966020860135965060408601359560600135945092505050565b600060208284031215612688578081fd5b8151801515811461252e578182fd5b6000602082840312156126a8578081fd5b5035919050565b600080604083850312156126c1578182fd5b8235915060208301356126d381612961565b809150509250929050565b600281106126fc57634e487b7160e01b600052602160045260246000fd5b9052565b6001600160a01b039384168152919092166020820152604081019190915260600190565b6001600160a01b038616815284151560208201528315156040820152821515606082015260a0810161207560808301846126de565b6001600160a01b039586168152602081019490945291841660408401529092166060820152608081019190915260a00190565b6001600160a01b03898116825260208201899052878116604083015286811660608301526080820186905260a08201859052831660c082015261010081016127d760e08301846126de565b9998505050505050505050565b6001600160a01b03858116825260208201859052831660408201526080810161281060608301846126de565b95945050505050565b6001600160a01b0386811682526020820186905260a082019061283f60408401876126de565b8460608401528084166080840152509695505050505050565b6020808252601c908201527f476861664d61726b6574506c6163653a2077726f6e672076616c756500000000604082015260600190565b6020808252602b908201527f496e697469616c697a61626c653a20636f6e7472616374206973206e6f74206960408201526a6e697469616c697a696e6760a81b606082015260800190565b6000826128f557634e487b7160e01b81526012600452602481fd5b500490565b60008160001904831182151516156129145761291461294b565b500290565b60008282101561292b5761292b61294b565b500390565b60006000198214156129445761294461294b565b5060010190565b634e487b7160e01b600052601160045260246000fd5b6001600160a01b0381168114611b5657600080fdfea2646970667358221220f033381b8a48a83110c45f186dd87ffd9d2395ed719d9c3361ddad716712352664736f6c63430008020033",
  "libraries": {
    "GhafMarketPlaceLib": "0xe7F7e517Ef826A171889B1f847E741D60C1d00C4"
  },
  "devdoc": {
    "kind": "dev",
    "methods": {
      "acceptBid(address,uint256,uint256)": {
        "details": "Will be reverted if the seller has already accepted a bid",
        "params": {
          "_bidIdx": "Index of the bid in bids list",
          "_nftContractAddress": "Address of NFT token contract",
          "_tokenId": "A number that identify the NFT within the NFT token contract"
        }
      },
      "buyNft(address,uint256,uint256,address)": {
        "params": {
          "_amount": "Amount of buyer's pay",
          "_nftContractAddress": "Address of NFT token contract",
          "_paymentToken": "Address of token that buyer uses for payment",
          "_tokenId": "A number that identify the NFT within the NFT token contract"
        }
      },
      "cancelBid(address,uint256,uint256)": {
        "details": "Only bid owner can call this function",
        "params": {
          "_bidIdx": "Index of the bid in bids list",
          "_nftContractAddress": "Address of NFT token contract",
          "_tokenId": "A number that identify the NFT within the NFT token contract"
        }
      },
      "delistNft(address,uint256)": {
        "details": "Revokes all the existing bids                             Reverts if the seller has accepted a bid or sold it",
        "params": {
          "_nftContractAddress": "Address of NFT token contract",
          "_tokenId": "A number that identify the NFT within the NFT token contract"
        }
      },
      "increaseBid(address,uint256,uint256,uint256)": {
        "details": "Reverts if the new amount is lower than the previous amount                             User sends the bid difference",
        "params": {
          "_bidIdx": "of the buyer",
          "_newAmount": "of bid",
          "_nftContractAddress": "Address of NFT token contract",
          "_tokenId": "A number that identify the NFT within the NFT token contract"
        }
      },
      "listNft(address,uint256,uint8)": {
        "details": "Call approve function of Nft Contract before the call this funcJust owner of nft can call this func",
        "params": {
          "_buyType": "Type of Buy nft (e.g. BUYNOW or AUCTION )",
          "_nftContractAddress": "Address of NFT token contract",
          "_tokenId": "A number that identify the NFT within the NFT token contract"
        }
      },
      "owner()": {
        "details": "Returns the address of the current owner."
      },
      "pause()": {
        "details": "Only owner can pause "
      },
      "paused()": {
        "details": "Returns true if the contract is paused, and false otherwise."
      },
      "putBid(address,uint256,uint256,address)": {
        "details": "User sends the bid amount along with the request",
        "params": {
          "_amount": "Amount of buyer's bid",
          "_nftContractAddress": "Address of NFT token contract",
          "_paymentToken": "Address of token that buyer uses for payment",
          "_tokenId": "A number that identify the NFT within the NFT token contract"
        }
      },
      "renounceOwnership()": {
        "details": "Leaves the contract without owner. It will not be possible to call `onlyOwner` functions. Can only be called by the current owner. NOTE: Renouncing ownership will leave the contract without an owner, thereby disabling any functionality that is only available to the owner."
      },
      "transferOwnership(address)": {
        "details": "Transfers ownership of the contract to a new account (`newOwner`). Can only be called by the current owner."
      },
      "unpause()": {
        "details": "Only owner can pause"
      }
    },
    "version": 1
  },
  "userdoc": {
    "kind": "user",
    "methods": {
      "acceptBid(address,uint256,uint256)": {
        "notice": "Accepts one of the existing bids & Sends funds to seller & Send Nft to Buyer"
      },
      "buyNft(address,uint256,uint256,address)": {
        "notice": "Puts amount for buyying an Nft & Sends funds to seller & Send Nft to Buyer"
      },
      "cancelBid(address,uint256,uint256)": {
        "notice": "Removes buyer's bid"
      },
      "delistNft(address,uint256)": {
        "notice": "Delists an Nft"
      },
      "increaseBid(address,uint256,uint256,uint256)": {
        "notice": "Increases the existing bid amount"
      },
      "listNft(address,uint256,uint8)": {
        "notice": "Lists Nft of a user"
      },
      "pause()": {
        "notice": "Pause the contract so only the functions can be called which are whenPaused"
      },
      "putBid(address,uint256,uint256,address)": {
        "notice": "Puts bid for buyying an Nft"
      },
      "setProtocolFee(uint256)": {
        "notice": "Setter for protocol fee"
      },
      "setTreasury(address)": {
        "notice": "Setter for treasury address"
      },
      "unpause()": {
        "notice": "Unpause the contract so only the functions can be called which are whenNotPaused"
      }
    },
    "version": 1
  },
  "storageLayout": {
    "storage": [
      {
        "astId": 3698,
        "contract": "contracts/GhafMarketplace/GhafMarketPlaceLogic.sol:GhafMarketPlaceLogic",
        "label": "treasury",
        "offset": 0,
        "slot": "0",
        "type": "t_address"
      },
      {
        "astId": 3701,
        "contract": "contracts/GhafMarketplace/GhafMarketPlaceLogic.sol:GhafMarketPlaceLogic",
        "label": "protocolFee",
        "offset": 0,
        "slot": "1",
        "type": "t_uint256"
      },
      {
        "astId": 3708,
        "contract": "contracts/GhafMarketplace/GhafMarketPlaceLogic.sol:GhafMarketPlaceLogic",
        "label": "nfts",
        "offset": 0,
        "slot": "2",
        "type": "t_mapping(t_address,t_mapping(t_uint256,t_struct(Nft)2220_storage))"
      },
      {
        "astId": 3716,
        "contract": "contracts/GhafMarketplace/GhafMarketPlaceLogic.sol:GhafMarketPlaceLogic",
        "label": "bids",
        "offset": 0,
        "slot": "3",
        "type": "t_mapping(t_address,t_mapping(t_uint256,t_array(t_struct(Bid)2229_storage)dyn_storage))"
      },
      {
        "astId": 138,
        "contract": "contracts/GhafMarketplace/GhafMarketPlaceLogic.sol:GhafMarketPlaceLogic",
        "label": "_initialized",
        "offset": 0,
        "slot": "4",
        "type": "t_uint8"
      },
      {
        "astId": 141,
        "contract": "contracts/GhafMarketplace/GhafMarketPlaceLogic.sol:GhafMarketPlaceLogic",
        "label": "_initializing",
        "offset": 1,
        "slot": "4",
        "type": "t_bool"
      },
      {
        "astId": 798,
        "contract": "contracts/GhafMarketplace/GhafMarketPlaceLogic.sol:GhafMarketPlaceLogic",
        "label": "__gap",
        "offset": 0,
        "slot": "5",
        "type": "t_array(t_uint256)50_storage"
      },
      {
        "astId": 10,
        "contract": "contracts/GhafMarketplace/GhafMarketPlaceLogic.sol:GhafMarketPlaceLogic",
        "label": "_owner",
        "offset": 0,
        "slot": "55",
        "type": "t_address"
      },
      {
        "astId": 130,
        "contract": "contracts/GhafMarketplace/GhafMarketPlaceLogic.sol:GhafMarketPlaceLogic",
        "label": "__gap",
        "offset": 0,
        "slot": "56",
        "type": "t_array(t_uint256)49_storage"
      },
      {
        "astId": 321,
        "contract": "contracts/GhafMarketplace/GhafMarketPlaceLogic.sol:GhafMarketPlaceLogic",
        "label": "_paused",
        "offset": 0,
        "slot": "105",
        "type": "t_bool"
      },
      {
        "astId": 426,
        "contract": "contracts/GhafMarketplace/GhafMarketPlaceLogic.sol:GhafMarketPlaceLogic",
        "label": "__gap",
        "offset": 0,
        "slot": "106",
        "type": "t_array(t_uint256)49_storage"
      }
    ],
    "types": {
      "t_address": {
        "encoding": "inplace",
        "label": "address",
        "numberOfBytes": "20"
      },
      "t_array(t_struct(Bid)2229_storage)dyn_storage": {
        "base": "t_struct(Bid)2229_storage",
        "encoding": "dynamic_array",
        "label": "struct GhafMarketPlaceLib.Bid[]",
        "numberOfBytes": "32"
      },
      "t_array(t_uint256)49_storage": {
        "base": "t_uint256",
        "encoding": "inplace",
        "label": "uint256[49]",
        "numberOfBytes": "1568"
      },
      "t_array(t_uint256)50_storage": {
        "base": "t_uint256",
        "encoding": "inplace",
        "label": "uint256[50]",
        "numberOfBytes": "1600"
      },
      "t_bool": {
        "encoding": "inplace",
        "label": "bool",
        "numberOfBytes": "1"
      },
      "t_enum(BuyTypes)2208": {
        "encoding": "inplace",
        "label": "enum GhafMarketPlaceLib.BuyTypes",
        "numberOfBytes": "1"
      },
      "t_mapping(t_address,t_mapping(t_uint256,t_array(t_struct(Bid)2229_storage)dyn_storage))": {
        "encoding": "mapping",
        "key": "t_address",
        "label": "mapping(address => mapping(uint256 => struct GhafMarketPlaceLib.Bid[]))",
        "numberOfBytes": "32",
        "value": "t_mapping(t_uint256,t_array(t_struct(Bid)2229_storage)dyn_storage)"
      },
      "t_mapping(t_address,t_mapping(t_uint256,t_struct(Nft)2220_storage))": {
        "encoding": "mapping",
        "key": "t_address",
        "label": "mapping(address => mapping(uint256 => struct GhafMarketPlaceLib.Nft))",
        "numberOfBytes": "32",
        "value": "t_mapping(t_uint256,t_struct(Nft)2220_storage)"
      },
      "t_mapping(t_uint256,t_array(t_struct(Bid)2229_storage)dyn_storage)": {
        "encoding": "mapping",
        "key": "t_uint256",
        "label": "mapping(uint256 => struct GhafMarketPlaceLib.Bid[])",
        "numberOfBytes": "32",
        "value": "t_array(t_struct(Bid)2229_storage)dyn_storage"
      },
      "t_mapping(t_uint256,t_struct(Nft)2220_storage)": {
        "encoding": "mapping",
        "key": "t_uint256",
        "label": "mapping(uint256 => struct GhafMarketPlaceLib.Nft)",
        "numberOfBytes": "32",
        "value": "t_struct(Nft)2220_storage"
      },
      "t_struct(Bid)2229_storage": {
        "encoding": "inplace",
        "label": "struct GhafMarketPlaceLib.Bid",
        "members": [
          {
            "astId": 2222,
            "contract": "contracts/GhafMarketplace/GhafMarketPlaceLogic.sol:GhafMarketPlaceLogic",
            "label": "buyerAddress",
            "offset": 0,
            "slot": "0",
            "type": "t_address"
          },
          {
            "astId": 2224,
            "contract": "contracts/GhafMarketplace/GhafMarketPlaceLogic.sol:GhafMarketPlaceLogic",
            "label": "bidAmount",
            "offset": 0,
            "slot": "1",
            "type": "t_uint256"
          },
          {
            "astId": 2226,
            "contract": "contracts/GhafMarketplace/GhafMarketPlaceLogic.sol:GhafMarketPlaceLogic",
            "label": "isAccepted",
            "offset": 0,
            "slot": "2",
            "type": "t_bool"
          },
          {
            "astId": 2228,
            "contract": "contracts/GhafMarketplace/GhafMarketPlaceLogic.sol:GhafMarketPlaceLogic",
            "label": "paymentToken",
            "offset": 1,
            "slot": "2",
            "type": "t_address"
          }
        ],
        "numberOfBytes": "96"
      },
      "t_struct(Nft)2220_storage": {
        "encoding": "inplace",
        "label": "struct GhafMarketPlaceLib.Nft",
        "members": [
          {
            "astId": 2210,
            "contract": "contracts/GhafMarketplace/GhafMarketPlaceLogic.sol:GhafMarketPlaceLogic",
            "label": "seller",
            "offset": 0,
            "slot": "0",
            "type": "t_address"
          },
          {
            "astId": 2212,
            "contract": "contracts/GhafMarketplace/GhafMarketPlaceLogic.sol:GhafMarketPlaceLogic",
            "label": "isSold",
            "offset": 20,
            "slot": "0",
            "type": "t_bool"
          },
          {
            "astId": 2214,
            "contract": "contracts/GhafMarketplace/GhafMarketPlaceLogic.sol:GhafMarketPlaceLogic",
            "label": "hasAccepted",
            "offset": 21,
            "slot": "0",
            "type": "t_bool"
          },
          {
            "astId": 2216,
            "contract": "contracts/GhafMarketplace/GhafMarketPlaceLogic.sol:GhafMarketPlaceLogic",
            "label": "isListed",
            "offset": 22,
            "slot": "0",
            "type": "t_bool"
          },
          {
            "astId": 2219,
            "contract": "contracts/GhafMarketplace/GhafMarketPlaceLogic.sol:GhafMarketPlaceLogic",
            "label": "buyType",
            "offset": 23,
            "slot": "0",
            "type": "t_enum(BuyTypes)2208"
          }
        ],
        "numberOfBytes": "32"
      },
      "t_uint256": {
        "encoding": "inplace",
        "label": "uint256",
        "numberOfBytes": "32"
      },
      "t_uint8": {
        "encoding": "inplace",
        "label": "uint8",
        "numberOfBytes": "1"
      }
    }
  }
}