{
  "address": "0xd66278Aebaf82437EaD618A3AE759831cB7942B8",
  "abi": [
    {
      "anonymous": false,
      "inputs": [
        {
          "indexed": false,
          "internalType": "address",
          "name": "nftContractAddress",
          "type": "address"
        },
        {
          "indexed": false,
          "internalType": "uint256",
          "name": "tokenId",
          "type": "uint256"
        },
        {
          "indexed": false,
          "internalType": "address",
          "name": "seller",
          "type": "address"
        },
        {
          "indexed": false,
          "internalType": "address",
          "name": "buyer",
          "type": "address"
        },
        {
          "indexed": false,
          "internalType": "uint256",
          "name": "bidIdx",
          "type": "uint256"
        }
      ],
      "name": "BidAccepted",
      "type": "event"
    },
    {
      "anonymous": false,
      "inputs": [
        {
          "indexed": false,
          "internalType": "address",
          "name": "nftContractAddress",
          "type": "address"
        },
        {
          "indexed": false,
          "internalType": "uint256",
          "name": "tokenId",
          "type": "uint256"
        },
        {
          "indexed": false,
          "internalType": "address",
          "name": "seller",
          "type": "address"
        },
        {
          "indexed": false,
          "internalType": "address",
          "name": "buyer",
          "type": "address"
        },
        {
          "indexed": false,
          "internalType": "uint256",
          "name": "bidIdx",
          "type": "uint256"
        }
      ],
      "name": "BidCanceled",
      "type": "event"
    },
    {
      "anonymous": false,
      "inputs": [
        {
          "indexed": false,
          "internalType": "address",
          "name": "nftContractAddress",
          "type": "address"
        },
        {
          "indexed": false,
          "internalType": "uint256",
          "name": "tokenId",
          "type": "uint256"
        },
        {
          "indexed": false,
          "internalType": "address",
          "name": "seller",
          "type": "address"
        },
        {
          "indexed": false,
          "internalType": "address",
          "name": "buyer",
          "type": "address"
        },
        {
          "indexed": false,
          "internalType": "uint256",
          "name": "bidIdx",
          "type": "uint256"
        }
      ],
      "name": "BidRevoked",
      "type": "event"
    },
    {
      "anonymous": false,
      "inputs": [
        {
          "indexed": false,
          "internalType": "address",
          "name": "nftContractAddress",
          "type": "address"
        },
        {
          "indexed": false,
          "internalType": "uint256",
          "name": "tokenId",
          "type": "uint256"
        },
        {
          "indexed": false,
          "internalType": "address",
          "name": "seller",
          "type": "address"
        },
        {
          "indexed": false,
          "internalType": "address",
          "name": "buyer",
          "type": "address"
        },
        {
          "indexed": false,
          "internalType": "uint256",
          "name": "bidIdx",
          "type": "uint256"
        },
        {
          "indexed": false,
          "internalType": "uint256",
          "name": "newAmount",
          "type": "uint256"
        }
      ],
      "name": "BidUpdated",
      "type": "event"
    },
    {
      "anonymous": false,
      "inputs": [
        {
          "indexed": false,
          "internalType": "uint8",
          "name": "version",
          "type": "uint8"
        }
      ],
      "name": "Initialized",
      "type": "event"
    },
    {
      "anonymous": false,
      "inputs": [
        {
          "indexed": false,
          "internalType": "address",
          "name": "nftContractAddress",
          "type": "address"
        },
        {
          "indexed": false,
          "internalType": "uint256",
          "name": "tokenId",
          "type": "uint256"
        },
        {
          "indexed": false,
          "internalType": "address",
          "name": "seller",
          "type": "address"
        },
        {
          "indexed": false,
          "internalType": "address",
          "name": "buyer",
          "type": "address"
        },
        {
          "indexed": false,
          "internalType": "uint256",
          "name": "bidAmount",
          "type": "uint256"
        },
        {
          "indexed": false,
          "internalType": "address",
          "name": "paymentToken",
          "type": "address"
        },
        {
          "indexed": false,
          "internalType": "uint256",
          "name": "bidIdx",
          "type": "uint256"
        }
      ],
      "name": "NewBid",
      "type": "event"
    },
    {
      "anonymous": false,
      "inputs": [
        {
          "indexed": false,
          "internalType": "address",
          "name": "nftContractAddress",
          "type": "address"
        },
        {
          "indexed": false,
          "internalType": "uint256",
          "name": "tokenId",
          "type": "uint256"
        },
        {
          "indexed": false,
          "internalType": "address",
          "name": "seller",
          "type": "address"
        }
      ],
      "name": "NftDelisted",
      "type": "event"
    },
    {
      "anonymous": false,
      "inputs": [
        {
          "indexed": false,
          "internalType": "address",
          "name": "nftContractAddress",
          "type": "address"
        },
        {
          "indexed": false,
          "internalType": "uint256",
          "name": "tokenId",
          "type": "uint256"
        },
        {
          "indexed": false,
          "internalType": "address",
          "name": "seller",
          "type": "address"
        },
        {
          "indexed": false,
          "internalType": "enum GhafMarketPlaceLib.BuyTypes",
          "name": "buyType",
          "type": "uint8"
        },
        {
          "indexed": false,
          "internalType": "uint256",
          "name": "deadline",
          "type": "uint256"
        },
        {
          "indexed": false,
          "internalType": "uint256",
          "name": "initialAmount",
          "type": "uint256"
        },
        {
          "indexed": false,
          "internalType": "address",
          "name": "initialPaymentToken",
          "type": "address"
        }
      ],
      "name": "NftListed",
      "type": "event"
    },
    {
      "anonymous": false,
      "inputs": [
        {
          "indexed": false,
          "internalType": "address",
          "name": "nftContractAddress",
          "type": "address"
        },
        {
          "indexed": false,
          "internalType": "uint256",
          "name": "tokenId",
          "type": "uint256"
        },
        {
          "indexed": false,
          "internalType": "address",
          "name": "seller",
          "type": "address"
        },
        {
          "indexed": false,
          "internalType": "address",
          "name": "buyer",
          "type": "address"
        },
        {
          "indexed": false,
          "internalType": "uint256",
          "name": "fee",
          "type": "uint256"
        },
        {
          "indexed": false,
          "internalType": "uint256",
          "name": "payAmount",
          "type": "uint256"
        },
        {
          "indexed": false,
          "internalType": "address",
          "name": "paymentToken",
          "type": "address"
        },
        {
          "indexed": false,
          "internalType": "enum GhafMarketPlaceLib.BuyTypes",
          "name": "buyType",
          "type": "uint8"
        }
      ],
      "name": "NftSold",
      "type": "event"
    },
    {
      "anonymous": false,
      "inputs": [
        {
          "indexed": true,
          "internalType": "address",
          "name": "previousOwner",
          "type": "address"
        },
        {
          "indexed": true,
          "internalType": "address",
          "name": "newOwner",
          "type": "address"
        }
      ],
      "name": "OwnershipTransferred",
      "type": "event"
    },
    {
      "anonymous": false,
      "inputs": [
        {
          "indexed": false,
          "internalType": "address",
          "name": "account",
          "type": "address"
        }
      ],
      "name": "Paused",
      "type": "event"
    },
    {
      "anonymous": false,
      "inputs": [
        {
          "indexed": false,
          "internalType": "address",
          "name": "account",
          "type": "address"
        }
      ],
      "name": "Unpaused",
      "type": "event"
    },
    {
      "inputs": [],
      "name": "MAX_PROTOCOL_FEE",
      "outputs": [
        {
          "internalType": "uint256",
          "name": "",
          "type": "uint256"
        }
      ],
      "stateMutability": "view",
      "type": "function"
    },
    {
      "inputs": [],
      "name": "NATIVE_TOKEN",
      "outputs": [
        {
          "internalType": "address",
          "name": "",
          "type": "address"
        }
      ],
      "stateMutability": "view",
      "type": "function"
    },
    {
      "inputs": [
        {
          "internalType": "address",
          "name": "_nftContractAddress",
          "type": "address"
        },
        {
          "internalType": "uint256",
          "name": "_tokenId",
          "type": "uint256"
        },
        {
          "internalType": "uint256",
          "name": "_bidIdx",
          "type": "uint256"
        }
      ],
      "name": "acceptBid",
      "outputs": [
        {
          "internalType": "bool",
          "name": "",
          "type": "bool"
        }
      ],
      "stateMutability": "nonpayable",
      "type": "function"
    },
    {
      "inputs": [
        {
          "internalType": "address",
          "name": "",
          "type": "address"
        },
        {
          "internalType": "uint256",
          "name": "",
          "type": "uint256"
        },
        {
          "internalType": "uint256",
          "name": "",
          "type": "uint256"
        }
      ],
      "name": "bids",
      "outputs": [
        {
          "internalType": "address",
          "name": "buyer",
          "type": "address"
        },
        {
          "internalType": "uint256",
          "name": "bidAmount",
          "type": "uint256"
        },
        {
          "internalType": "bool",
          "name": "isAccepted",
          "type": "bool"
        },
        {
          "internalType": "address",
          "name": "paymentToken",
          "type": "address"
        }
      ],
      "stateMutability": "view",
      "type": "function"
    },
    {
      "inputs": [
        {
          "internalType": "address",
          "name": "_nftContractAddress",
          "type": "address"
        },
        {
          "internalType": "uint256",
          "name": "_tokenId",
          "type": "uint256"
        },
        {
          "internalType": "uint256",
          "name": "_amount",
          "type": "uint256"
        },
        {
          "internalType": "address",
          "name": "_paymentToken",
          "type": "address"
        }
      ],
      "name": "buyNft",
      "outputs": [
        {
          "internalType": "bool",
          "name": "",
          "type": "bool"
        }
      ],
      "stateMutability": "payable",
      "type": "function"
    },
    {
      "inputs": [
        {
          "internalType": "address",
          "name": "_nftContractAddress",
          "type": "address"
        },
        {
          "internalType": "uint256",
          "name": "_tokenId",
          "type": "uint256"
        },
        {
          "internalType": "uint256",
          "name": "_bidIdx",
          "type": "uint256"
        }
      ],
      "name": "cancelBid",
      "outputs": [
        {
          "internalType": "bool",
          "name": "",
          "type": "bool"
        }
      ],
      "stateMutability": "nonpayable",
      "type": "function"
    },
    {
      "inputs": [
        {
          "internalType": "address",
          "name": "_nftContractAddress",
          "type": "address"
        },
        {
          "internalType": "uint256",
          "name": "_tokenId",
          "type": "uint256"
        }
      ],
      "name": "delistNft",
      "outputs": [
        {
          "internalType": "bool",
          "name": "",
          "type": "bool"
        }
      ],
      "stateMutability": "nonpayable",
      "type": "function"
    },
    {
      "inputs": [
        {
          "internalType": "address",
          "name": "_nftContractAddress",
          "type": "address"
        },
        {
          "internalType": "uint256",
          "name": "_tokenId",
          "type": "uint256"
        },
        {
          "internalType": "uint256",
          "name": "_bidIdx",
          "type": "uint256"
        },
        {
          "internalType": "uint256",
          "name": "_newAmount",
          "type": "uint256"
        }
      ],
      "name": "increaseBid",
      "outputs": [
        {
          "internalType": "bool",
          "name": "",
          "type": "bool"
        }
      ],
      "stateMutability": "payable",
      "type": "function"
    },
    {
      "inputs": [
        {
          "internalType": "uint256",
          "name": "_protocolFee",
          "type": "uint256"
        },
        {
          "internalType": "address",
          "name": "_treasury",
          "type": "address"
        }
      ],
      "name": "initialize",
      "outputs": [],
      "stateMutability": "nonpayable",
      "type": "function"
    },
    {
      "inputs": [
        {
          "internalType": "address",
          "name": "_nftContractAddress",
          "type": "address"
        },
        {
          "internalType": "uint256",
          "name": "_tokenId",
          "type": "uint256"
        },
        {
          "internalType": "enum GhafMarketPlaceLib.BuyTypes",
          "name": "_buyType",
          "type": "uint8"
        },
        {
          "internalType": "uint256",
          "name": "_auctionDuration",
          "type": "uint256"
        },
        {
          "internalType": "uint256",
          "name": "_initialAmount",
          "type": "uint256"
        },
        {
          "internalType": "address",
          "name": "_initialPaymentToken",
          "type": "address"
        }
      ],
      "name": "listNft",
      "outputs": [
        {
          "internalType": "bool",
          "name": "",
          "type": "bool"
        }
      ],
      "stateMutability": "nonpayable",
      "type": "function"
    },
    {
      "inputs": [
        {
          "internalType": "address",
          "name": "",
          "type": "address"
        },
        {
          "internalType": "uint256",
          "name": "",
          "type": "uint256"
        }
      ],
      "name": "nfts",
      "outputs": [
        {
          "internalType": "address",
          "name": "seller",
          "type": "address"
        },
        {
          "internalType": "bool",
          "name": "isSold",
          "type": "bool"
        },
        {
          "internalType": "bool",
          "name": "hasAccepted",
          "type": "bool"
        },
        {
          "internalType": "bool",
          "name": "isListed",
          "type": "bool"
        },
        {
          "internalType": "uint256",
          "name": "deadline",
          "type": "uint256"
        },
        {
          "internalType": "enum GhafMarketPlaceLib.BuyTypes",
          "name": "buyType",
          "type": "uint8"
        },
        {
          "internalType": "uint256",
          "name": "initialAmount",
          "type": "uint256"
        },
        {
          "internalType": "address",
          "name": "initialPaymentToken",
          "type": "address"
        }
      ],
      "stateMutability": "view",
      "type": "function"
    },
    {
      "inputs": [],
      "name": "owner",
      "outputs": [
        {
          "internalType": "address",
          "name": "",
          "type": "address"
        }
      ],
      "stateMutability": "view",
      "type": "function"
    },
    {
      "inputs": [],
      "name": "pause",
      "outputs": [],
      "stateMutability": "nonpayable",
      "type": "function"
    },
    {
      "inputs": [],
      "name": "paused",
      "outputs": [
        {
          "internalType": "bool",
          "name": "",
          "type": "bool"
        }
      ],
      "stateMutability": "view",
      "type": "function"
    },
    {
      "inputs": [],
      "name": "protocolFee",
      "outputs": [
        {
          "internalType": "uint256",
          "name": "",
          "type": "uint256"
        }
      ],
      "stateMutability": "view",
      "type": "function"
    },
    {
      "inputs": [
        {
          "internalType": "address",
          "name": "_nftContractAddress",
          "type": "address"
        },
        {
          "internalType": "uint256",
          "name": "_tokenId",
          "type": "uint256"
        },
        {
          "internalType": "uint256",
          "name": "_amount",
          "type": "uint256"
        },
        {
          "internalType": "address",
          "name": "_paymentToken",
          "type": "address"
        }
      ],
      "name": "putBid",
      "outputs": [
        {
          "internalType": "uint256",
          "name": "_bidIdx",
          "type": "uint256"
        }
      ],
      "stateMutability": "payable",
      "type": "function"
    },
    {
      "inputs": [],
      "name": "renounceOwnership",
      "outputs": [],
      "stateMutability": "nonpayable",
      "type": "function"
    },
    {
      "inputs": [
        {
          "internalType": "uint256",
          "name": "_protocolFee",
          "type": "uint256"
        }
      ],
      "name": "setProtocolFee",
      "outputs": [],
      "stateMutability": "nonpayable",
      "type": "function"
    },
    {
      "inputs": [
        {
          "internalType": "address",
          "name": "_treasury",
          "type": "address"
        }
      ],
      "name": "setTreasury",
      "outputs": [],
      "stateMutability": "nonpayable",
      "type": "function"
    },
    {
      "inputs": [
        {
          "internalType": "address",
          "name": "newOwner",
          "type": "address"
        }
      ],
      "name": "transferOwnership",
      "outputs": [],
      "stateMutability": "nonpayable",
      "type": "function"
    },
    {
      "inputs": [],
      "name": "treasury",
      "outputs": [
        {
          "internalType": "address",
          "name": "",
          "type": "address"
        }
      ],
      "stateMutability": "view",
      "type": "function"
    },
    {
      "inputs": [],
      "name": "unpause",
      "outputs": [],
      "stateMutability": "nonpayable",
      "type": "function"
    },
    {
      "stateMutability": "payable",
      "type": "receive"
    }
  ],
  "transactionHash": "0x64e8847764e61a766937ba11c3be1a8b1b4068660cca16eea9b7afad358d5853",
  "args": [],
  "numDeployments": 1,
  "solcInputHash": "ec27017eabc2e6c4d226aaa4dadb4e57",
  "bytecode": "0x608060405234801561001057600080fd5b50612f1e806100206000396000f3fe6080604052600436106101395760003560e01c80637c978886116100ab578063b8ca3b831161006f578063b8ca3b83146103c3578063c63fe556146103d8578063da35a26f146103f8578063e13a40f014610418578063f0f4426014610438578063f2fde38b1461045857610140565b80637c978886146103475780638456cb59146103675780638ae455051461037c5780638da5cb5b1461038f578063b0e21e8a146103ad57610140565b806346d02934116100fd57806346d0293414610274578063561c9276146102c75780635c975abb146102da57806361d027b3146102f2578063715018a614610312578063787dce3d1461032757610140565b806328f2a0c21461014557806331f7d9641461016b5780633290463b146101985780633f4ba83a146101c857806343af356b146101df57610140565b3661014057005b600080fd5b610158610153366004612af6565b610478565b6040519081526020015b60405180910390f35b34801561017757600080fd5b50610180600181565b6040516001600160a01b039091168152602001610162565b3480156101a457600080fd5b506101b86101b3366004612ac2565b61077b565b6040519015158152602001610162565b3480156101d457600080fd5b506101dd6109fb565b005b3480156101eb57600080fd5b506102606101fa366004612a2e565b60026020818152600093845260408085209091529183529120805460018201549282015460038301546004909301546001600160a01b038084169560ff600160a01b8604811696600160a81b8704821696600160b01b9004821695929491909216921688565b604051610162989796959493929190612c26565b34801561028057600080fd5b5061029461028f366004612ac2565b610a0d565b604080516001600160a01b0395861681526020810194909452911515918301919091529091166060820152608001610162565b6101b86102d5366004612af6565b610a72565b3480156102e657600080fd5b5060695460ff166101b8565b3480156102fe57600080fd5b50600054610180906001600160a01b031681565b34801561031e57600080fd5b506101dd610cb7565b34801561033357600080fd5b506101dd610342366004612b99565b610cbf565b34801561035357600080fd5b506101b8610362366004612a2e565b610d1d565b34801561037357600080fd5b506101dd61110a565b6101b861038a366004612b3f565b61111a565b34801561039b57600080fd5b506037546001600160a01b0316610180565b3480156103b957600080fd5b5061015860015481565b3480156103cf57600080fd5b50610158606481565b3480156103e457600080fd5b506101b86103f3366004612a59565b611421565b34801561040457600080fd5b506101dd610413366004612bb1565b61164f565b34801561042457600080fd5b506101b8610433366004612ac2565b61177c565b34801561044457600080fd5b506101dd6104533660046129ef565b611ca4565b34801561046457600080fd5b506101dd6104733660046129ef565b611d26565b6000610482611d9f565b816001600160a01b0381166104de5760405162461bcd60e51b815260206004820181905260248201527f476861664d61726b6574506c6163653a2061646472657373206973207a65726f60448201526064015b60405180910390fd5b604051639f6f48b360e01b81526001600160a01b0387166004820152602481018690526002604482015242606482015273aDFdD6C21aBDeaA29Bb46B1731143fa0CeAE370590639f6f48b39060840160006040518083038186803b15801561054557600080fd5b505af4158015610559573d6000803e3d6000fd5b505060408051608081018252600080825260208201819052918101829052606081019190915291506105889050565b33815260016001600160a01b03851614156105c1578434146105bc5760405162461bcd60e51b81526004016104d590612db2565b610645565b6040516323b872dd60e01b81526001600160a01b038516906323b872dd906105f190339030908a90600401612c02565b602060405180830381600087803b15801561060b57600080fd5b505af115801561061f573d6000803e3d6000fd5b505050506040513d601f19601f820116820180604052508101906106439190612b79565b505b60208181018681526001600160a01b03868116606085019081528a82166000908152600380865260408083208d845287528083208054600180820183558286529885208a519190940290930180549387166001600160a01b031990941693909317835595518288015587015160029091018054935190941661010002610100600160a81b031991151560ff19909416939093171691909117909155889052546106ee9190612e8b565b6001600160a01b0388811660008181526002602090815260408083208c84528252918290205482519384529083018b90528316828201523360608301526080820189905291871660a082015260c0810183905290519194507f099bd8f91c5f4fea587a36ba2437cdfdd9cf9254421e9e26682b48f95afdae12919081900360e00190a15050949350505050565b6001600160a01b038316600090815260036020908152604080832085845290915281208054339190849081106107c157634e487b7160e01b600052603260045260246000fd5b60009182526020909120600390910201546001600160a01b0316146108285760405162461bcd60e51b815260206004820152601a60248201527f476861664d61726b6574506c6163653a206e6f74206f776e657200000000000060448201526064016104d5565b6001600160a01b0384166000908152600360209081526040808320868452909152902080548390811061086b57634e487b7160e01b600052603260045260246000fd5b600091825260209091206002600390920201015460ff1615610931576001600160a01b0384166000908152600260209081526040808320868452909152902054600160a01b900460ff16156109025760405162461bcd60e51b815260206004820152601960248201527f476861664d61726b6574506c6163653a206e667420736f6c640000000000000060448201526064016104d5565b6001600160a01b03841660009081526002602090815260408083208684529091529020805460ff60a81b191690555b6001600160a01b03808516600081815260026020908152604080832088845282528083205493835260038252808320888452909152902080547f2206717382ed98a50d41c9d10a48cb2e4d7929ff50504925b9328b99fdf112289388938893911691879081106109b157634e487b7160e01b600052603260045260246000fd5b60009182526020909120600390910201546040516109dd949392916001600160a01b0316908890612c81565b60405180910390a16109f184843385611de5565b5060019392505050565b610a036120d0565b610a0b61212a565b565b60036020528260005260406000206020528160005260406000208181548110610a3557600080fd5b60009182526020909120600390910201805460018201546002909201546001600160a01b03918216955091935060ff821692506101009091041684565b6001600160a01b038416600090815260026020818152604080842087855290915282200154819060ff166001811115610abb57634e487b7160e01b600052602160045260246000fd5b14610b175760405162461bcd60e51b815260206004820152602660248201527f476861664d61726b6574506c6163653a2062757954797065206973206e6f74206044820152654255594e4f5760d01b60648201526084016104d5565b6001600160a01b038581166000908152600260209081526040808320888452909152902060040154811690831614610b9d5760405162461bcd60e51b8152602060048201526024808201527f476861664d61726b6574506c6163653a2077726f6e67207061796d656e74207460448201526337b5b2b760e11b60648201526084016104d5565b6001600160a01b03851660009081526002602090815260408083208784529091529020600301548314610be25760405162461bcd60e51b81526004016104d590612db2565b6001600160a01b03821660011415610c1857823414610c135760405162461bcd60e51b81526004016104d590612db2565b610c9c565b6040516323b872dd60e01b81526001600160a01b038316906323b872dd90610c4890339030908890600401612c02565b602060405180830381600087803b158015610c6257600080fd5b505af1158015610c76573d6000803e3d6000fd5b505050506040513d601f19601f82011682018060405250810190610c9a9190612b79565b505b610cab8585338686600061217c565b50600195945050505050565b610a0b6120d0565b610cc76120d0565b8060641015610d185760405162461bcd60e51b815260206004820152601c60248201527f476861664d61726b6574506c6163653a20696e76616c6964206665650000000060448201526064016104d5565b600155565b600080610d326037546001600160a01b031690565b6001600160a01b0316336001600160a01b031614610d505733610d77565b6001600160a01b038085166000908152600260209081526040808320878452909152902054165b6001600160a01b0385811660008181526002602081815260408084208a85529091529182902054915163676c480f60e01b81526004810193909352602483018890526044830152909116606482015290915073aDFdD6C21aBDeaA29Bb46B1731143fa0CeAE37059063676c480f9060840160006040518083038186803b158015610e0057600080fd5b505af4158015610e14573d6000803e3d6000fd5b50506040516323b872dd60e01b81526001600160a01b03871692506323b872dd9150610e4890309085908890600401612c02565b600060405180830381600087803b158015610e6257600080fd5b505af1158015610e76573d6000803e3d6000fd5b5050505060005b6001600160a01b038516600090815260036020908152604080832087845290915290205481101561103c576001600160a01b03851660009081526003602090815260408083208784529091528120805483908110610eeb57634e487b7160e01b600052603260045260246000fd5b60009182526020909120600390910201546001600160a01b03161461102a576001600160a01b03808616600081815260026020908152604080832089845282528083205493835260038252808320898452909152902080547f2d90ac1c059eb788f6122a35a6641a9423c6ab4a03f506fd7204f8d0d8750c80938993899391169186908110610f8a57634e487b7160e01b600052603260045260246000fd5b6000918252602090912060039091020154604051610fb6949392916001600160a01b0316908790612c81565b60405180910390a16001600160a01b03851660009081526003602090815260408083208784529091529020805461102a9187918791908590811061100a57634e487b7160e01b600052603260045260246000fd5b60009182526020909120600390910201546001600160a01b031684611de5565b8061103481612ea2565b915050610e7d565b506001600160a01b0384811660008181526002602090815260408083208884528252918290205482519384529083018790529092168183015290517fe5eb66cd46c56d8f2e3f3671c821b67775962716c61f5ede46ced2c047c8900f9181900360600190a150506001600160a01b0391909116600090815260026020818152604080842094845293905291812080546001600160b81b0319168155918201805460ff1916905560018083018290556003830191909155600490910180546001600160a01b0319168217905590565b6111126120d0565b610a0b61255c565b6000611124611d9f565b6040805163a03b591d60e01b81526001600160a01b038716600482015260248101869052604481018590526064810184905260026084820152600360a48201523360c48201524260e4820152905173aDFdD6C21aBDeaA29Bb46B1731143fa0CeAE37059163a03b591d91610104808301926000929190829003018186803b1580156111ae57600080fd5b505af41580156111c2573d6000803e3d6000fd5b505050506001600160a01b0385166000908152600360209081526040808320878452909152812080548590811061120957634e487b7160e01b600052603260045260246000fd5b906000526020600020906003020160010154836112269190612e8b565b6001600160a01b03871660009081526003602090815260408083208984529091528120805492935090918690811061126e57634e487b7160e01b600052603260045260246000fd5b600091825260209091206003909102016002015461010090046001600160a01b0316905060018114156112bf578134146112ba5760405162461bcd60e51b81526004016104d590612db2565b611343565b6040516323b872dd60e01b81526001600160a01b038216906323b872dd906112ef90339030908790600401612c02565b602060405180830381600087803b15801561130957600080fd5b505af115801561131d573d6000803e3d6000fd5b505050506040513d601f19601f820116820180604052508101906113419190612b79565b505b6001600160a01b0387166000908152600360209081526040808320898452909152902080548591908790811061138957634e487b7160e01b600052603260045260246000fd5b60009182526020808320600392909202909101600101929092556001600160a01b038981168083526002845260408084208b85528552928390205483519182529381018a90529216828201523360608301526080820187905260a08201869052517fe74ba9d02c7e3172a8c653bf2bcfaff5cb81fbf933284d0bf440b8c64940aea99181900360c00190a15060019695505050505050565b600061142b611d9f565b336040516331a9108f60e11b8152600481018890526001600160a01b0391821691891690636352211e9060240160206040518083038186803b15801561147057600080fd5b505afa158015611484573d6000803e3d6000fd5b505050506040513d601f19601f820116820180604052508101906114a89190612a12565b6001600160a01b03161461150f5760405162461bcd60e51b815260206004820152602860248201527f476861664d61726b6574506c6163653a2043616c6c6572206973206e6f74207460448201526734329037bbb732b960c11b60648201526084016104d5565b6040516323b872dd60e01b81526001600160a01b038816906323b872dd9061153f90339030908b90600401612c02565b600060405180830381600087803b15801561155957600080fd5b505af115801561156d573d6000803e3d6000fd5b505050506000844261157f9190612e34565b6040516352db7ee960e11b815290915073aDFdD6C21aBDeaA29Bb46B1731143fa0CeAE37059063a5b6fdd2906115c8908b908b908b90879060029033908d908d90600401612d5b565b60006040518083038186803b1580156115e057600080fd5b505af41580156115f4573d6000803e3d6000fd5b505050507fbac0aa07b613c6e42eda1096e2731e444efff0186b0806f27f4711366181d3e488886116223390565b898589896040516116399796959493929190612d0c565b60405180910390a1506001979650505050505050565b600454610100900460ff161580801561166f5750600454600160ff909116105b806116895750303b158015611689575060045460ff166001145b6116ec5760405162461bcd60e51b815260206004820152602e60248201527f496e697469616c697a61626c653a20636f6e747261637420697320616c72656160448201526d191e481a5b9a5d1a585b1a5e995960921b60648201526084016104d5565b6004805460ff19166001179055801561170f576004805461ff0019166101001790555b611717612599565b61171f6125c8565b61172883610cbf565b61173182611ca4565b8015611777576004805461ff0019169055604051600181527f7f26b83ff96e1f2b6a682f133852f6798a09c465da95921460cefb38474024989060200160405180910390a15b505050565b6000611786611d9f565b60016001600160a01b0385166000908152600260208181526040808420888552909152909120015460ff1660018111156117d057634e487b7160e01b600052602160045260246000fd5b1461182d5760405162461bcd60e51b815260206004820152602760248201527f476861664d61726b6574506c6163653a2062757954797065206973206e6f742060448201526620aaa1aa24a7a760c91b60648201526084016104d5565b6001600160a01b0384166000908152600260209081526040808320868452909152902054600160a81b900460ff16156118b25760405162461bcd60e51b815260206004820152602160248201527f476861664d61726b6574506c6163653a20616c726561647920616363657074656044820152601960fa1b60648201526084016104d5565b6001600160a01b038416600090815260036020908152604080832086845290915290205482106119245760405162461bcd60e51b815260206004820152601c60248201527f476861664d61726b6574506c6163653a20696e76616c6964206964780000000060448201526064016104d5565b6001600160a01b03841660009081526002602090815260408083208684529091529020600101544211156119ce576037546001600160a01b031633146119c95760405162461bcd60e51b815260206004820152603460248201527f476861664d61726b6574506c6163653a2054686520646561646c696e6520666f604482015273391030b1b1b2b83a103134b21034b99037bb32b960611b60648201526084016104d5565b611a42565b6001600160a01b038481166000908152600260209081526040808320878452909152902054163314611a425760405162461bcd60e51b815260206004820152601a60248201527f476861664d61726b6574506c6163653a206e6f74206f776e657200000000000060448201526064016104d5565b6001600160a01b03841660008181526002602090815260408083208784528252808320805460ff60a81b1916600160a81b1790559282526003815282822086835290522080546001919084908110611aaa57634e487b7160e01b600052603260045260246000fd5b600091825260208083206003928302016002908101805460ff1916951515959095179094556001600160a01b038881168085529482526040808520898652835280852054958552928252828420888552909152912080547f0d496e5bb4fa3f063ed8f5f3553ecdcc05d9c45885f4de61327caffd024407fd938893889391169187908110611b4857634e487b7160e01b600052603260045260246000fd5b6000918252602090912060039091020154604051611b74949392916001600160a01b0316908890612c81565b60405180910390a16001600160a01b038416600090815260036020908152604080832086845290915290208054611c9991869186919086908110611bc857634e487b7160e01b600052603260045260246000fd5b60009182526020808320600392830201546001600160a01b038b8116855292825260408085208b86529092529220805491909216919087908110611c1c57634e487b7160e01b600052603260045260246000fd5b60009182526020808320600392830201600101546001600160a01b038c16845291815260408084208b8552909152909120805488908110611c6d57634e487b7160e01b600052603260045260246000fd5b906000526020600020906003020160020160019054906101000a90046001600160a01b0316600161217c565b506001949350505050565b806001600160a01b038116611cfb5760405162461bcd60e51b815260206004820181905260248201527f476861664d61726b6574506c6163653a2061646472657373206973207a65726f60448201526064016104d5565b611d036120d0565b50600080546001600160a01b0319166001600160a01b0392909216919091179055565b611d2e6120d0565b6001600160a01b038116611d935760405162461bcd60e51b815260206004820152602660248201527f4f776e61626c653a206e6577206f776e657220697320746865207a65726f206160448201526564647265737360d01b60648201526084016104d5565b611d9c816125f7565b50565b60695460ff1615610a0b5760405162461bcd60e51b815260206004820152601060248201526f14185d5cd8589b194e881c185d5cd95960821b60448201526064016104d5565b6001600160a01b03841660009081526003602090815260408083208684529091529020805482908110611e2857634e487b7160e01b600052603260045260246000fd5b600091825260209091206002600390920201015460ff16612051576001600160a01b0384166000908152600360209081526040808320868452909152902080546001919083908110611e8a57634e487b7160e01b600052603260045260246000fd5b600091825260209091206003909102016002015461010090046001600160a01b03161415611f17576001600160a01b038416600090815260036020908152604080832086845290915290208054611f1291849184908110611efb57634e487b7160e01b600052603260045260246000fd5b906000526020600020906003020160010154612649565b612051565b6001600160a01b03841660009081526003602090815260408083208684529091529020805482908110611f5a57634e487b7160e01b600052603260045260246000fd5b60009182526020808320600392830201600201546001600160a01b0388811685529282526040808520888652909252922080546101009093049091169163a9059cbb91859185908110611fbd57634e487b7160e01b600052603260045260246000fd5b60009182526020909120600160039092020101546040516001600160e01b031960e085901b1681526001600160a01b0390921660048301526024820152604401602060405180830381600087803b15801561201757600080fd5b505af115801561202b573d6000803e3d6000fd5b505050506040513d601f19601f8201168201806040525081019061204f9190612b79565b505b6001600160a01b0384166000908152600360209081526040808320868452909152902080548290811061209457634e487b7160e01b600052603260045260246000fd5b60009182526020822060039091020180546001600160a01b0319168155600181019190915560020180546001600160a81b031916905550505050565b6037546001600160a01b03163314610a0b5760405162461bcd60e51b815260206004820181905260248201527f4f776e61626c653a2063616c6c6572206973206e6f7420746865206f776e657260448201526064016104d5565b612132612762565b6069805460ff191690557f5db9ee0a495bf2e6ff9c91a7834c1ba4fdd244a5e8aa4e537bd38aeae4b073aa335b6040516001600160a01b03909116815260200160405180910390a1565b6001600160a01b0386166000908152600260209081526040808320888452909152812054600160a01b900460ff16156121f75760405162461bcd60e51b815260206004820152601960248201527f476861664d61726b6574506c6163653a20736f6c64206e66740000000000000060448201526064016104d5565b6040516323b872dd60e01b81526001600160a01b038816906323b872dd9061222790309089908b90600401612c02565b600060405180830381600087803b15801561224157600080fd5b505af1158015612255573d6000803e3d6000fd5b505050506001600160a01b038716600090815260026020908152604080832089845290915281208054600160a01b60ff60a01b199091161761ffff60a81b19168155600180820183905560038201839055600490910180546001600160a01b03191690911790556122c8888887876127ab565b905060018360018111156122ec57634e487b7160e01b600052602160045260246000fd5b14156124f55760005b6001600160a01b03891660009081526003602090815260408083208b84529091529020548110156124f3576001600160a01b03891660009081526003602090815260408083208b8452909152812080548390811061236357634e487b7160e01b600052603260045260246000fd5b60009182526020909120600390910201546001600160a01b0316146124e1576001600160a01b03891660009081526003602090815260408083208b845290915290208054829081106123c557634e487b7160e01b600052603260045260246000fd5b600091825260209091206002600390920201015460ff16612495576001600160a01b03808a1660008181526002602090815260408083208d8452825280832054938352600382528083208d8452909152902080547f2d90ac1c059eb788f6122a35a6641a9423c6ab4a03f506fd7204f8d0d8750c80938d938d939116918690811061246057634e487b7160e01b600052603260045260246000fd5b600091825260209091206003909102015460405161248c949392916001600160a01b0316908790612c81565b60405180910390a15b6001600160a01b03891660009081526003602090815260408083208b8452909152902080546124e1918b918b91908590811061100a57634e487b7160e01b600052603260045260246000fd5b806124eb81612ea2565b9150506122f5565b505b6001600160a01b0380891660009081526002602090815260408083208b8452909152908190205490517fb994b13bf5ee11fd15d7b0a9ef63605e4d6d7159717150edb6bab98bef14d0b092611639928c928c9291909116908b9087908c908c908c90612cb4565b612564611d9f565b6069805460ff191660011790557f62e78cea01bee320cd4e420270b5ea74000d11b0c9f74754ebdbfc544b05a25861215f3390565b600454610100900460ff166125c05760405162461bcd60e51b81526004016104d590612de9565b610a0b61298c565b600454610100900460ff166125ef5760405162461bcd60e51b81526004016104d590612de9565b610a0b6129bc565b603780546001600160a01b038381166001600160a01b0319831681179093556040519116919082907f8be0079c531659141344cd1fd0a4f28419497f9722a3daafe3b4186f6b6457e090600090a35050565b804710156126995760405162461bcd60e51b815260206004820152601d60248201527f416464726573733a20696e73756666696369656e742062616c616e636500000060448201526064016104d5565b6000826001600160a01b03168260405160006040518083038185875af1925050503d80600081146126e6576040519150601f19603f3d011682016040523d82523d6000602084013e6126eb565b606091505b50509050806117775760405162461bcd60e51b815260206004820152603a60248201527f416464726573733a20756e61626c6520746f2073656e642076616c75652c207260448201527f6563697069656e74206d6179206861766520726576657274656400000000000060648201526084016104d5565b60695460ff16610a0b5760405162461bcd60e51b815260206004820152601460248201527314185d5cd8589b194e881b9bdd081c185d5cd95960621b60448201526064016104d5565b600154600090829084906064906127c3908390612e6c565b6127cd9190612e4c565b92506001600160a01b0382166001141561283b576001600160a01b0380881660009081526002602090815260408083208a845290915290205461281a91166128158584612e8b565b612649565b821561283657600054612836906001600160a01b031684612649565b612982565b6001600160a01b0387811660009081526002602090815260408083208a84529091529020548184169163a9059cbb91166128758685612e8b565b6040516001600160e01b031960e085901b1681526001600160a01b0390921660048301526024820152604401602060405180830381600087803b1580156128bb57600080fd5b505af11580156128cf573d6000803e3d6000fd5b505050506040513d601f19601f820116820180604052508101906128f39190612b79565b5082156129825760005460405163a9059cbb60e01b81526001600160a01b039182166004820152602481018590529083169063a9059cbb90604401602060405180830381600087803b15801561294857600080fd5b505af115801561295c573d6000803e3d6000fd5b505050506040513d601f19601f820116820180604052508101906129809190612b79565b505b5050949350505050565b600454610100900460ff166129b35760405162461bcd60e51b81526004016104d590612de9565b610a0b336125f7565b600454610100900460ff166129e35760405162461bcd60e51b81526004016104d590612de9565b6069805460ff19169055565b600060208284031215612a00578081fd5b8135612a0b81612ed3565b9392505050565b600060208284031215612a23578081fd5b8151612a0b81612ed3565b60008060408385031215612a40578081fd5b8235612a4b81612ed3565b946020939093013593505050565b60008060008060008060c08789031215612a71578182fd5b8635612a7c81612ed3565b955060208701359450604087013560028110612a96578283fd5b9350606087013592506080870135915060a0870135612ab481612ed3565b809150509295509295509295565b600080600060608486031215612ad6578283fd5b8335612ae181612ed3565b95602085013595506040909401359392505050565b60008060008060808587031215612b0b578384fd5b8435612b1681612ed3565b935060208501359250604085013591506060850135612b3481612ed3565b939692955090935050565b60008060008060808587031215612b54578384fd5b8435612b5f81612ed3565b966020860135965060408601359560600135945092505050565b600060208284031215612b8a578081fd5b81518015158114612a0b578182fd5b600060208284031215612baa578081fd5b5035919050565b60008060408385031215612bc3578182fd5b823591506020830135612bd581612ed3565b809150509250929050565b60028110612bfe57634e487b7160e01b600052602160045260246000fd5b9052565b6001600160a01b039384168152919092166020820152604081019190915260600190565b6001600160a01b03898116825288151560208301528715156040830152861515606083015260808201869052610100820190612c6560a0840187612be0565b8460c084015280841660e0840152509998505050505050505050565b6001600160a01b039586168152602081019490945291841660408401529092166060820152608081019190915260a00190565b6001600160a01b03898116825260208201899052878116604083015286811660608301526080820186905260a08201859052831660c08201526101008101612cff60e0830184612be0565b9998505050505050505050565b6001600160a01b03888116825260208201889052868116604083015260e0820190612d3a6060840188612be0565b8560808401528460a084015280841660c08401525098975050505050505050565b6001600160a01b03898116825260208201899052610100820190612d82604084018a612be0565b87606084015286608084015280861660a08401528460c084015280841660e0840152509998505050505050505050565b6020808252601c908201527f476861664d61726b6574506c6163653a2077726f6e672076616c756500000000604082015260600190565b6020808252602b908201527f496e697469616c697a61626c653a20636f6e7472616374206973206e6f74206960408201526a6e697469616c697a696e6760a81b606082015260800190565b60008219821115612e4757612e47612ebd565b500190565b600082612e6757634e487b7160e01b81526012600452602481fd5b500490565b6000816000190483118215151615612e8657612e86612ebd565b500290565b600082821015612e9d57612e9d612ebd565b500390565b6000600019821415612eb657612eb6612ebd565b5060010190565b634e487b7160e01b600052601160045260246000fd5b6001600160a01b0381168114611d9c57600080fdfea2646970667358221220744af9603e328dfb58984014b7cba801cac265db826e0460412438871076847464736f6c63430008020033",
  "deployedBytecode": "0x6080604052600436106101395760003560e01c80637c978886116100ab578063b8ca3b831161006f578063b8ca3b83146103c3578063c63fe556146103d8578063da35a26f146103f8578063e13a40f014610418578063f0f4426014610438578063f2fde38b1461045857610140565b80637c978886146103475780638456cb59146103675780638ae455051461037c5780638da5cb5b1461038f578063b0e21e8a146103ad57610140565b806346d02934116100fd57806346d0293414610274578063561c9276146102c75780635c975abb146102da57806361d027b3146102f2578063715018a614610312578063787dce3d1461032757610140565b806328f2a0c21461014557806331f7d9641461016b5780633290463b146101985780633f4ba83a146101c857806343af356b146101df57610140565b3661014057005b600080fd5b610158610153366004612af6565b610478565b6040519081526020015b60405180910390f35b34801561017757600080fd5b50610180600181565b6040516001600160a01b039091168152602001610162565b3480156101a457600080fd5b506101b86101b3366004612ac2565b61077b565b6040519015158152602001610162565b3480156101d457600080fd5b506101dd6109fb565b005b3480156101eb57600080fd5b506102606101fa366004612a2e565b60026020818152600093845260408085209091529183529120805460018201549282015460038301546004909301546001600160a01b038084169560ff600160a01b8604811696600160a81b8704821696600160b01b9004821695929491909216921688565b604051610162989796959493929190612c26565b34801561028057600080fd5b5061029461028f366004612ac2565b610a0d565b604080516001600160a01b0395861681526020810194909452911515918301919091529091166060820152608001610162565b6101b86102d5366004612af6565b610a72565b3480156102e657600080fd5b5060695460ff166101b8565b3480156102fe57600080fd5b50600054610180906001600160a01b031681565b34801561031e57600080fd5b506101dd610cb7565b34801561033357600080fd5b506101dd610342366004612b99565b610cbf565b34801561035357600080fd5b506101b8610362366004612a2e565b610d1d565b34801561037357600080fd5b506101dd61110a565b6101b861038a366004612b3f565b61111a565b34801561039b57600080fd5b506037546001600160a01b0316610180565b3480156103b957600080fd5b5061015860015481565b3480156103cf57600080fd5b50610158606481565b3480156103e457600080fd5b506101b86103f3366004612a59565b611421565b34801561040457600080fd5b506101dd610413366004612bb1565b61164f565b34801561042457600080fd5b506101b8610433366004612ac2565b61177c565b34801561044457600080fd5b506101dd6104533660046129ef565b611ca4565b34801561046457600080fd5b506101dd6104733660046129ef565b611d26565b6000610482611d9f565b816001600160a01b0381166104de5760405162461bcd60e51b815260206004820181905260248201527f476861664d61726b6574506c6163653a2061646472657373206973207a65726f60448201526064015b60405180910390fd5b604051639f6f48b360e01b81526001600160a01b0387166004820152602481018690526002604482015242606482015273__$6f36ab20fdf9043aa4045132f820d2d401$__90639f6f48b39060840160006040518083038186803b15801561054557600080fd5b505af4158015610559573d6000803e3d6000fd5b505060408051608081018252600080825260208201819052918101829052606081019190915291506105889050565b33815260016001600160a01b03851614156105c1578434146105bc5760405162461bcd60e51b81526004016104d590612db2565b610645565b6040516323b872dd60e01b81526001600160a01b038516906323b872dd906105f190339030908a90600401612c02565b602060405180830381600087803b15801561060b57600080fd5b505af115801561061f573d6000803e3d6000fd5b505050506040513d601f19601f820116820180604052508101906106439190612b79565b505b60208181018681526001600160a01b03868116606085019081528a82166000908152600380865260408083208d845287528083208054600180820183558286529885208a519190940290930180549387166001600160a01b031990941693909317835595518288015587015160029091018054935190941661010002610100600160a81b031991151560ff19909416939093171691909117909155889052546106ee9190612e8b565b6001600160a01b0388811660008181526002602090815260408083208c84528252918290205482519384529083018b90528316828201523360608301526080820189905291871660a082015260c0810183905290519194507f099bd8f91c5f4fea587a36ba2437cdfdd9cf9254421e9e26682b48f95afdae12919081900360e00190a15050949350505050565b6001600160a01b038316600090815260036020908152604080832085845290915281208054339190849081106107c157634e487b7160e01b600052603260045260246000fd5b60009182526020909120600390910201546001600160a01b0316146108285760405162461bcd60e51b815260206004820152601a60248201527f476861664d61726b6574506c6163653a206e6f74206f776e657200000000000060448201526064016104d5565b6001600160a01b0384166000908152600360209081526040808320868452909152902080548390811061086b57634e487b7160e01b600052603260045260246000fd5b600091825260209091206002600390920201015460ff1615610931576001600160a01b0384166000908152600260209081526040808320868452909152902054600160a01b900460ff16156109025760405162461bcd60e51b815260206004820152601960248201527f476861664d61726b6574506c6163653a206e667420736f6c640000000000000060448201526064016104d5565b6001600160a01b03841660009081526002602090815260408083208684529091529020805460ff60a81b191690555b6001600160a01b03808516600081815260026020908152604080832088845282528083205493835260038252808320888452909152902080547f2206717382ed98a50d41c9d10a48cb2e4d7929ff50504925b9328b99fdf112289388938893911691879081106109b157634e487b7160e01b600052603260045260246000fd5b60009182526020909120600390910201546040516109dd949392916001600160a01b0316908890612c81565b60405180910390a16109f184843385611de5565b5060019392505050565b610a036120d0565b610a0b61212a565b565b60036020528260005260406000206020528160005260406000208181548110610a3557600080fd5b60009182526020909120600390910201805460018201546002909201546001600160a01b03918216955091935060ff821692506101009091041684565b6001600160a01b038416600090815260026020818152604080842087855290915282200154819060ff166001811115610abb57634e487b7160e01b600052602160045260246000fd5b14610b175760405162461bcd60e51b815260206004820152602660248201527f476861664d61726b6574506c6163653a2062757954797065206973206e6f74206044820152654255594e4f5760d01b60648201526084016104d5565b6001600160a01b038581166000908152600260209081526040808320888452909152902060040154811690831614610b9d5760405162461bcd60e51b8152602060048201526024808201527f476861664d61726b6574506c6163653a2077726f6e67207061796d656e74207460448201526337b5b2b760e11b60648201526084016104d5565b6001600160a01b03851660009081526002602090815260408083208784529091529020600301548314610be25760405162461bcd60e51b81526004016104d590612db2565b6001600160a01b03821660011415610c1857823414610c135760405162461bcd60e51b81526004016104d590612db2565b610c9c565b6040516323b872dd60e01b81526001600160a01b038316906323b872dd90610c4890339030908890600401612c02565b602060405180830381600087803b158015610c6257600080fd5b505af1158015610c76573d6000803e3d6000fd5b505050506040513d601f19601f82011682018060405250810190610c9a9190612b79565b505b610cab8585338686600061217c565b50600195945050505050565b610a0b6120d0565b610cc76120d0565b8060641015610d185760405162461bcd60e51b815260206004820152601c60248201527f476861664d61726b6574506c6163653a20696e76616c6964206665650000000060448201526064016104d5565b600155565b600080610d326037546001600160a01b031690565b6001600160a01b0316336001600160a01b031614610d505733610d77565b6001600160a01b038085166000908152600260209081526040808320878452909152902054165b6001600160a01b0385811660008181526002602081815260408084208a85529091529182902054915163676c480f60e01b81526004810193909352602483018890526044830152909116606482015290915073__$6f36ab20fdf9043aa4045132f820d2d401$__9063676c480f9060840160006040518083038186803b158015610e0057600080fd5b505af4158015610e14573d6000803e3d6000fd5b50506040516323b872dd60e01b81526001600160a01b03871692506323b872dd9150610e4890309085908890600401612c02565b600060405180830381600087803b158015610e6257600080fd5b505af1158015610e76573d6000803e3d6000fd5b5050505060005b6001600160a01b038516600090815260036020908152604080832087845290915290205481101561103c576001600160a01b03851660009081526003602090815260408083208784529091528120805483908110610eeb57634e487b7160e01b600052603260045260246000fd5b60009182526020909120600390910201546001600160a01b03161461102a576001600160a01b03808616600081815260026020908152604080832089845282528083205493835260038252808320898452909152902080547f2d90ac1c059eb788f6122a35a6641a9423c6ab4a03f506fd7204f8d0d8750c80938993899391169186908110610f8a57634e487b7160e01b600052603260045260246000fd5b6000918252602090912060039091020154604051610fb6949392916001600160a01b0316908790612c81565b60405180910390a16001600160a01b03851660009081526003602090815260408083208784529091529020805461102a9187918791908590811061100a57634e487b7160e01b600052603260045260246000fd5b60009182526020909120600390910201546001600160a01b031684611de5565b8061103481612ea2565b915050610e7d565b506001600160a01b0384811660008181526002602090815260408083208884528252918290205482519384529083018790529092168183015290517fe5eb66cd46c56d8f2e3f3671c821b67775962716c61f5ede46ced2c047c8900f9181900360600190a150506001600160a01b0391909116600090815260026020818152604080842094845293905291812080546001600160b81b0319168155918201805460ff1916905560018083018290556003830191909155600490910180546001600160a01b0319168217905590565b6111126120d0565b610a0b61255c565b6000611124611d9f565b6040805163a03b591d60e01b81526001600160a01b038716600482015260248101869052604481018590526064810184905260026084820152600360a48201523360c48201524260e4820152905173__$6f36ab20fdf9043aa4045132f820d2d401$__9163a03b591d91610104808301926000929190829003018186803b1580156111ae57600080fd5b505af41580156111c2573d6000803e3d6000fd5b505050506001600160a01b0385166000908152600360209081526040808320878452909152812080548590811061120957634e487b7160e01b600052603260045260246000fd5b906000526020600020906003020160010154836112269190612e8b565b6001600160a01b03871660009081526003602090815260408083208984529091528120805492935090918690811061126e57634e487b7160e01b600052603260045260246000fd5b600091825260209091206003909102016002015461010090046001600160a01b0316905060018114156112bf578134146112ba5760405162461bcd60e51b81526004016104d590612db2565b611343565b6040516323b872dd60e01b81526001600160a01b038216906323b872dd906112ef90339030908790600401612c02565b602060405180830381600087803b15801561130957600080fd5b505af115801561131d573d6000803e3d6000fd5b505050506040513d601f19601f820116820180604052508101906113419190612b79565b505b6001600160a01b0387166000908152600360209081526040808320898452909152902080548591908790811061138957634e487b7160e01b600052603260045260246000fd5b60009182526020808320600392909202909101600101929092556001600160a01b038981168083526002845260408084208b85528552928390205483519182529381018a90529216828201523360608301526080820187905260a08201869052517fe74ba9d02c7e3172a8c653bf2bcfaff5cb81fbf933284d0bf440b8c64940aea99181900360c00190a15060019695505050505050565b600061142b611d9f565b336040516331a9108f60e11b8152600481018890526001600160a01b0391821691891690636352211e9060240160206040518083038186803b15801561147057600080fd5b505afa158015611484573d6000803e3d6000fd5b505050506040513d601f19601f820116820180604052508101906114a89190612a12565b6001600160a01b03161461150f5760405162461bcd60e51b815260206004820152602860248201527f476861664d61726b6574506c6163653a2043616c6c6572206973206e6f74207460448201526734329037bbb732b960c11b60648201526084016104d5565b6040516323b872dd60e01b81526001600160a01b038816906323b872dd9061153f90339030908b90600401612c02565b600060405180830381600087803b15801561155957600080fd5b505af115801561156d573d6000803e3d6000fd5b505050506000844261157f9190612e34565b6040516352db7ee960e11b815290915073__$6f36ab20fdf9043aa4045132f820d2d401$__9063a5b6fdd2906115c8908b908b908b90879060029033908d908d90600401612d5b565b60006040518083038186803b1580156115e057600080fd5b505af41580156115f4573d6000803e3d6000fd5b505050507fbac0aa07b613c6e42eda1096e2731e444efff0186b0806f27f4711366181d3e488886116223390565b898589896040516116399796959493929190612d0c565b60405180910390a1506001979650505050505050565b600454610100900460ff161580801561166f5750600454600160ff909116105b806116895750303b158015611689575060045460ff166001145b6116ec5760405162461bcd60e51b815260206004820152602e60248201527f496e697469616c697a61626c653a20636f6e747261637420697320616c72656160448201526d191e481a5b9a5d1a585b1a5e995960921b60648201526084016104d5565b6004805460ff19166001179055801561170f576004805461ff0019166101001790555b611717612599565b61171f6125c8565b61172883610cbf565b61173182611ca4565b8015611777576004805461ff0019169055604051600181527f7f26b83ff96e1f2b6a682f133852f6798a09c465da95921460cefb38474024989060200160405180910390a15b505050565b6000611786611d9f565b60016001600160a01b0385166000908152600260208181526040808420888552909152909120015460ff1660018111156117d057634e487b7160e01b600052602160045260246000fd5b1461182d5760405162461bcd60e51b815260206004820152602760248201527f476861664d61726b6574506c6163653a2062757954797065206973206e6f742060448201526620aaa1aa24a7a760c91b60648201526084016104d5565b6001600160a01b0384166000908152600260209081526040808320868452909152902054600160a81b900460ff16156118b25760405162461bcd60e51b815260206004820152602160248201527f476861664d61726b6574506c6163653a20616c726561647920616363657074656044820152601960fa1b60648201526084016104d5565b6001600160a01b038416600090815260036020908152604080832086845290915290205482106119245760405162461bcd60e51b815260206004820152601c60248201527f476861664d61726b6574506c6163653a20696e76616c6964206964780000000060448201526064016104d5565b6001600160a01b03841660009081526002602090815260408083208684529091529020600101544211156119ce576037546001600160a01b031633146119c95760405162461bcd60e51b815260206004820152603460248201527f476861664d61726b6574506c6163653a2054686520646561646c696e6520666f604482015273391030b1b1b2b83a103134b21034b99037bb32b960611b60648201526084016104d5565b611a42565b6001600160a01b038481166000908152600260209081526040808320878452909152902054163314611a425760405162461bcd60e51b815260206004820152601a60248201527f476861664d61726b6574506c6163653a206e6f74206f776e657200000000000060448201526064016104d5565b6001600160a01b03841660008181526002602090815260408083208784528252808320805460ff60a81b1916600160a81b1790559282526003815282822086835290522080546001919084908110611aaa57634e487b7160e01b600052603260045260246000fd5b600091825260208083206003928302016002908101805460ff1916951515959095179094556001600160a01b038881168085529482526040808520898652835280852054958552928252828420888552909152912080547f0d496e5bb4fa3f063ed8f5f3553ecdcc05d9c45885f4de61327caffd024407fd938893889391169187908110611b4857634e487b7160e01b600052603260045260246000fd5b6000918252602090912060039091020154604051611b74949392916001600160a01b0316908890612c81565b60405180910390a16001600160a01b038416600090815260036020908152604080832086845290915290208054611c9991869186919086908110611bc857634e487b7160e01b600052603260045260246000fd5b60009182526020808320600392830201546001600160a01b038b8116855292825260408085208b86529092529220805491909216919087908110611c1c57634e487b7160e01b600052603260045260246000fd5b60009182526020808320600392830201600101546001600160a01b038c16845291815260408084208b8552909152909120805488908110611c6d57634e487b7160e01b600052603260045260246000fd5b906000526020600020906003020160020160019054906101000a90046001600160a01b0316600161217c565b506001949350505050565b806001600160a01b038116611cfb5760405162461bcd60e51b815260206004820181905260248201527f476861664d61726b6574506c6163653a2061646472657373206973207a65726f60448201526064016104d5565b611d036120d0565b50600080546001600160a01b0319166001600160a01b0392909216919091179055565b611d2e6120d0565b6001600160a01b038116611d935760405162461bcd60e51b815260206004820152602660248201527f4f776e61626c653a206e6577206f776e657220697320746865207a65726f206160448201526564647265737360d01b60648201526084016104d5565b611d9c816125f7565b50565b60695460ff1615610a0b5760405162461bcd60e51b815260206004820152601060248201526f14185d5cd8589b194e881c185d5cd95960821b60448201526064016104d5565b6001600160a01b03841660009081526003602090815260408083208684529091529020805482908110611e2857634e487b7160e01b600052603260045260246000fd5b600091825260209091206002600390920201015460ff16612051576001600160a01b0384166000908152600360209081526040808320868452909152902080546001919083908110611e8a57634e487b7160e01b600052603260045260246000fd5b600091825260209091206003909102016002015461010090046001600160a01b03161415611f17576001600160a01b038416600090815260036020908152604080832086845290915290208054611f1291849184908110611efb57634e487b7160e01b600052603260045260246000fd5b906000526020600020906003020160010154612649565b612051565b6001600160a01b03841660009081526003602090815260408083208684529091529020805482908110611f5a57634e487b7160e01b600052603260045260246000fd5b60009182526020808320600392830201600201546001600160a01b0388811685529282526040808520888652909252922080546101009093049091169163a9059cbb91859185908110611fbd57634e487b7160e01b600052603260045260246000fd5b60009182526020909120600160039092020101546040516001600160e01b031960e085901b1681526001600160a01b0390921660048301526024820152604401602060405180830381600087803b15801561201757600080fd5b505af115801561202b573d6000803e3d6000fd5b505050506040513d601f19601f8201168201806040525081019061204f9190612b79565b505b6001600160a01b0384166000908152600360209081526040808320868452909152902080548290811061209457634e487b7160e01b600052603260045260246000fd5b60009182526020822060039091020180546001600160a01b0319168155600181019190915560020180546001600160a81b031916905550505050565b6037546001600160a01b03163314610a0b5760405162461bcd60e51b815260206004820181905260248201527f4f776e61626c653a2063616c6c6572206973206e6f7420746865206f776e657260448201526064016104d5565b612132612762565b6069805460ff191690557f5db9ee0a495bf2e6ff9c91a7834c1ba4fdd244a5e8aa4e537bd38aeae4b073aa335b6040516001600160a01b03909116815260200160405180910390a1565b6001600160a01b0386166000908152600260209081526040808320888452909152812054600160a01b900460ff16156121f75760405162461bcd60e51b815260206004820152601960248201527f476861664d61726b6574506c6163653a20736f6c64206e66740000000000000060448201526064016104d5565b6040516323b872dd60e01b81526001600160a01b038816906323b872dd9061222790309089908b90600401612c02565b600060405180830381600087803b15801561224157600080fd5b505af1158015612255573d6000803e3d6000fd5b505050506001600160a01b038716600090815260026020908152604080832089845290915281208054600160a01b60ff60a01b199091161761ffff60a81b19168155600180820183905560038201839055600490910180546001600160a01b03191690911790556122c8888887876127ab565b905060018360018111156122ec57634e487b7160e01b600052602160045260246000fd5b14156124f55760005b6001600160a01b03891660009081526003602090815260408083208b84529091529020548110156124f3576001600160a01b03891660009081526003602090815260408083208b8452909152812080548390811061236357634e487b7160e01b600052603260045260246000fd5b60009182526020909120600390910201546001600160a01b0316146124e1576001600160a01b03891660009081526003602090815260408083208b845290915290208054829081106123c557634e487b7160e01b600052603260045260246000fd5b600091825260209091206002600390920201015460ff16612495576001600160a01b03808a1660008181526002602090815260408083208d8452825280832054938352600382528083208d8452909152902080547f2d90ac1c059eb788f6122a35a6641a9423c6ab4a03f506fd7204f8d0d8750c80938d938d939116918690811061246057634e487b7160e01b600052603260045260246000fd5b600091825260209091206003909102015460405161248c949392916001600160a01b0316908790612c81565b60405180910390a15b6001600160a01b03891660009081526003602090815260408083208b8452909152902080546124e1918b918b91908590811061100a57634e487b7160e01b600052603260045260246000fd5b806124eb81612ea2565b9150506122f5565b505b6001600160a01b0380891660009081526002602090815260408083208b8452909152908190205490517fb994b13bf5ee11fd15d7b0a9ef63605e4d6d7159717150edb6bab98bef14d0b092611639928c928c9291909116908b9087908c908c908c90612cb4565b612564611d9f565b6069805460ff191660011790557f62e78cea01bee320cd4e420270b5ea74000d11b0c9f74754ebdbfc544b05a25861215f3390565b600454610100900460ff166125c05760405162461bcd60e51b81526004016104d590612de9565b610a0b61298c565b600454610100900460ff166125ef5760405162461bcd60e51b81526004016104d590612de9565b610a0b6129bc565b603780546001600160a01b038381166001600160a01b0319831681179093556040519116919082907f8be0079c531659141344cd1fd0a4f28419497f9722a3daafe3b4186f6b6457e090600090a35050565b804710156126995760405162461bcd60e51b815260206004820152601d60248201527f416464726573733a20696e73756666696369656e742062616c616e636500000060448201526064016104d5565b6000826001600160a01b03168260405160006040518083038185875af1925050503d80600081146126e6576040519150601f19603f3d011682016040523d82523d6000602084013e6126eb565b606091505b50509050806117775760405162461bcd60e51b815260206004820152603a60248201527f416464726573733a20756e61626c6520746f2073656e642076616c75652c207260448201527f6563697069656e74206d6179206861766520726576657274656400000000000060648201526084016104d5565b60695460ff16610a0b5760405162461bcd60e51b815260206004820152601460248201527314185d5cd8589b194e881b9bdd081c185d5cd95960621b60448201526064016104d5565b600154600090829084906064906127c3908390612e6c565b6127cd9190612e4c565b92506001600160a01b0382166001141561283b576001600160a01b0380881660009081526002602090815260408083208a845290915290205461281a91166128158584612e8b565b612649565b821561283657600054612836906001600160a01b031684612649565b612982565b6001600160a01b0387811660009081526002602090815260408083208a84529091529020548184169163a9059cbb91166128758685612e8b565b6040516001600160e01b031960e085901b1681526001600160a01b0390921660048301526024820152604401602060405180830381600087803b1580156128bb57600080fd5b505af11580156128cf573d6000803e3d6000fd5b505050506040513d601f19601f820116820180604052508101906128f39190612b79565b5082156129825760005460405163a9059cbb60e01b81526001600160a01b039182166004820152602481018590529083169063a9059cbb90604401602060405180830381600087803b15801561294857600080fd5b505af115801561295c573d6000803e3d6000fd5b505050506040513d601f19601f820116820180604052508101906129809190612b79565b505b5050949350505050565b600454610100900460ff166129b35760405162461bcd60e51b81526004016104d590612de9565b610a0b336125f7565b600454610100900460ff166129e35760405162461bcd60e51b81526004016104d590612de9565b6069805460ff19169055565b600060208284031215612a00578081fd5b8135612a0b81612ed3565b9392505050565b600060208284031215612a23578081fd5b8151612a0b81612ed3565b60008060408385031215612a40578081fd5b8235612a4b81612ed3565b946020939093013593505050565b60008060008060008060c08789031215612a71578182fd5b8635612a7c81612ed3565b955060208701359450604087013560028110612a96578283fd5b9350606087013592506080870135915060a0870135612ab481612ed3565b809150509295509295509295565b600080600060608486031215612ad6578283fd5b8335612ae181612ed3565b95602085013595506040909401359392505050565b60008060008060808587031215612b0b578384fd5b8435612b1681612ed3565b935060208501359250604085013591506060850135612b3481612ed3565b939692955090935050565b60008060008060808587031215612b54578384fd5b8435612b5f81612ed3565b966020860135965060408601359560600135945092505050565b600060208284031215612b8a578081fd5b81518015158114612a0b578182fd5b600060208284031215612baa578081fd5b5035919050565b60008060408385031215612bc3578182fd5b823591506020830135612bd581612ed3565b809150509250929050565b60028110612bfe57634e487b7160e01b600052602160045260246000fd5b9052565b6001600160a01b039384168152919092166020820152604081019190915260600190565b6001600160a01b03898116825288151560208301528715156040830152861515606083015260808201869052610100820190612c6560a0840187612be0565b8460c084015280841660e0840152509998505050505050505050565b6001600160a01b039586168152602081019490945291841660408401529092166060820152608081019190915260a00190565b6001600160a01b03898116825260208201899052878116604083015286811660608301526080820186905260a08201859052831660c08201526101008101612cff60e0830184612be0565b9998505050505050505050565b6001600160a01b03888116825260208201889052868116604083015260e0820190612d3a6060840188612be0565b8560808401528460a084015280841660c08401525098975050505050505050565b6001600160a01b03898116825260208201899052610100820190612d82604084018a612be0565b87606084015286608084015280861660a08401528460c084015280841660e0840152509998505050505050505050565b6020808252601c908201527f476861664d61726b6574506c6163653a2077726f6e672076616c756500000000604082015260600190565b6020808252602b908201527f496e697469616c697a61626c653a20636f6e7472616374206973206e6f74206960408201526a6e697469616c697a696e6760a81b606082015260800190565b60008219821115612e4757612e47612ebd565b500190565b600082612e6757634e487b7160e01b81526012600452602481fd5b500490565b6000816000190483118215151615612e8657612e86612ebd565b500290565b600082821015612e9d57612e9d612ebd565b500390565b6000600019821415612eb657612eb6612ebd565b5060010190565b634e487b7160e01b600052601160045260246000fd5b6001600160a01b0381168114611d9c57600080fdfea2646970667358221220744af9603e328dfb58984014b7cba801cac265db826e0460412438871076847464736f6c63430008020033",
  "libraries": {
    "GhafMarketPlaceLib": "0xaDFdD6C21aBDeaA29Bb46B1731143fa0CeAE3705"
  },
  "devdoc": {
    "kind": "dev",
    "methods": {
      "acceptBid(address,uint256,uint256)": {
        "details": "Will be reverted if the seller has already accepted a bid",
        "params": {
          "_bidIdx": "Index of the bid in bids list",
          "_nftContractAddress": "Address of NFT token contract",
          "_tokenId": "A number that identify the NFT within the NFT token contract"
        }
      },
      "buyNft(address,uint256,uint256,address)": {
        "params": {
          "_amount": "Amount of buyer's pay",
          "_nftContractAddress": "Address of NFT token contract",
          "_paymentToken": "Address of token that buyer uses for payment",
          "_tokenId": "A number that identify the NFT within the NFT token contract"
        }
      },
      "cancelBid(address,uint256,uint256)": {
        "details": "Only bid owner can call this function",
        "params": {
          "_bidIdx": "Index of the bid in bids list",
          "_nftContractAddress": "Address of NFT token contract",
          "_tokenId": "A number that identify the NFT within the NFT token contract"
        }
      },
      "delistNft(address,uint256)": {
        "details": "Revokes all the existing bids                             Reverts if the seller has accepted a bid or sold it",
        "params": {
          "_nftContractAddress": "Address of NFT token contract",
          "_tokenId": "A number that identify the NFT within the NFT token contract"
        }
      },
      "increaseBid(address,uint256,uint256,uint256)": {
        "details": "Reverts if the new amount is lower than the previous amount                             User sends the bid difference",
        "params": {
          "_bidIdx": "of the buyer",
          "_newAmount": "of bid",
          "_nftContractAddress": "Address of NFT token contract",
          "_tokenId": "A number that identify the NFT within the NFT token contract"
        }
      },
      "listNft(address,uint256,uint8,uint256,uint256,address)": {
        "details": "Call approve function of Nft Contract before the call this funcJust owner of nft can call this func",
        "params": {
          "_auctionDuration": "The period of time(timestamp) each user can bid on an nft",
          "_buyType": "Type of Buy nft (e.g. BUYNOW or AUCTION )",
          "_initialAmount": "Initial Amount of buyre's can uses for payment",
          "_initialPaymentToken": "Initial Address of token that buyer uses for payment",
          "_nftContractAddress": "Address of NFT token contract",
          "_tokenId": "A number that identify the NFT within the NFT token contract"
        }
      },
      "owner()": {
        "details": "Returns the address of the current owner."
      },
      "pause()": {
        "details": "Only owner can pause "
      },
      "paused()": {
        "details": "Returns true if the contract is paused, and false otherwise."
      },
      "putBid(address,uint256,uint256,address)": {
        "details": "User sends the bid amount along with the request",
        "params": {
          "_amount": "Amount of buyer's bid",
          "_nftContractAddress": "Address of NFT token contract",
          "_paymentToken": "Address of token that buyer uses for payment",
          "_tokenId": "A number that identify the NFT within the NFT token contract"
        }
      },
      "renounceOwnership()": {
        "details": "Leaves the contract without owner. It will not be possible to call `onlyOwner` functions. Can only be called by the current owner. NOTE: Renouncing ownership will leave the contract without an owner, thereby disabling any functionality that is only available to the owner."
      },
      "transferOwnership(address)": {
        "details": "Transfers ownership of the contract to a new account (`newOwner`). Can only be called by the current owner."
      },
      "unpause()": {
        "details": "Only owner can pause"
      }
    },
    "version": 1
  },
  "userdoc": {
    "kind": "user",
    "methods": {
      "acceptBid(address,uint256,uint256)": {
        "notice": "Accepts one of the existing bids & Sends funds to seller & Send Nft to Buyer"
      },
      "buyNft(address,uint256,uint256,address)": {
        "notice": "Puts amount for buyying an Nft & Sends funds to seller & Send Nft to Buyer"
      },
      "cancelBid(address,uint256,uint256)": {
        "notice": "Removes buyer's bid"
      },
      "delistNft(address,uint256)": {
        "notice": "Delists a Nft"
      },
      "increaseBid(address,uint256,uint256,uint256)": {
        "notice": "Increases the existing bid amount"
      },
      "listNft(address,uint256,uint8,uint256,uint256,address)": {
        "notice": "Lists Nft of a user"
      },
      "pause()": {
        "notice": "Pause the contract so only the functions can be called which are whenPaused"
      },
      "putBid(address,uint256,uint256,address)": {
        "notice": "Puts bid for buyying an Nft"
      },
      "setProtocolFee(uint256)": {
        "notice": "Setter for protocol fee"
      },
      "setTreasury(address)": {
        "notice": "Setter for treasury address"
      },
      "unpause()": {
        "notice": "Unpause the contract so only the functions can be called which are whenNotPaused"
      }
    },
    "version": 1
  },
  "storageLayout": {
    "storage": [
      {
        "astId": 3119,
        "contract": "contracts/GhafMarketplace/GhafMarketPlaceLogic.sol:GhafMarketPlaceLogic",
        "label": "treasury",
        "offset": 0,
        "slot": "0",
        "type": "t_address"
      },
      {
        "astId": 3122,
        "contract": "contracts/GhafMarketplace/GhafMarketPlaceLogic.sol:GhafMarketPlaceLogic",
        "label": "protocolFee",
        "offset": 0,
        "slot": "1",
        "type": "t_uint256"
      },
      {
        "astId": 3129,
        "contract": "contracts/GhafMarketplace/GhafMarketPlaceLogic.sol:GhafMarketPlaceLogic",
        "label": "nfts",
        "offset": 0,
        "slot": "2",
        "type": "t_mapping(t_address,t_mapping(t_uint256,t_struct(Nft)1359_storage))"
      },
      {
        "astId": 3137,
        "contract": "contracts/GhafMarketplace/GhafMarketPlaceLogic.sol:GhafMarketPlaceLogic",
        "label": "bids",
        "offset": 0,
        "slot": "3",
        "type": "t_mapping(t_address,t_mapping(t_uint256,t_array(t_struct(Bid)1368_storage)dyn_storage))"
      },
      {
        "astId": 138,
        "contract": "contracts/GhafMarketplace/GhafMarketPlaceLogic.sol:GhafMarketPlaceLogic",
        "label": "_initialized",
        "offset": 0,
        "slot": "4",
        "type": "t_uint8"
      },
      {
        "astId": 141,
        "contract": "contracts/GhafMarketplace/GhafMarketPlaceLogic.sol:GhafMarketPlaceLogic",
        "label": "_initializing",
        "offset": 1,
        "slot": "4",
        "type": "t_bool"
      },
      {
        "astId": 798,
        "contract": "contracts/GhafMarketplace/GhafMarketPlaceLogic.sol:GhafMarketPlaceLogic",
        "label": "__gap",
        "offset": 0,
        "slot": "5",
        "type": "t_array(t_uint256)50_storage"
      },
      {
        "astId": 10,
        "contract": "contracts/GhafMarketplace/GhafMarketPlaceLogic.sol:GhafMarketPlaceLogic",
        "label": "_owner",
        "offset": 0,
        "slot": "55",
        "type": "t_address"
      },
      {
        "astId": 130,
        "contract": "contracts/GhafMarketplace/GhafMarketPlaceLogic.sol:GhafMarketPlaceLogic",
        "label": "__gap",
        "offset": 0,
        "slot": "56",
        "type": "t_array(t_uint256)49_storage"
      },
      {
        "astId": 321,
        "contract": "contracts/GhafMarketplace/GhafMarketPlaceLogic.sol:GhafMarketPlaceLogic",
        "label": "_paused",
        "offset": 0,
        "slot": "105",
        "type": "t_bool"
      },
      {
        "astId": 426,
        "contract": "contracts/GhafMarketplace/GhafMarketPlaceLogic.sol:GhafMarketPlaceLogic",
        "label": "__gap",
        "offset": 0,
        "slot": "106",
        "type": "t_array(t_uint256)49_storage"
      }
    ],
    "types": {
      "t_address": {
        "encoding": "inplace",
        "label": "address",
        "numberOfBytes": "20"
      },
      "t_array(t_struct(Bid)1368_storage)dyn_storage": {
        "base": "t_struct(Bid)1368_storage",
        "encoding": "dynamic_array",
        "label": "struct GhafMarketPlaceLib.Bid[]",
        "numberOfBytes": "32"
      },
      "t_array(t_uint256)49_storage": {
        "base": "t_uint256",
        "encoding": "inplace",
        "label": "uint256[49]",
        "numberOfBytes": "1568"
      },
      "t_array(t_uint256)50_storage": {
        "base": "t_uint256",
        "encoding": "inplace",
        "label": "uint256[50]",
        "numberOfBytes": "1600"
      },
      "t_bool": {
        "encoding": "inplace",
        "label": "bool",
        "numberOfBytes": "1"
      },
      "t_enum(BuyTypes)1341": {
        "encoding": "inplace",
        "label": "enum GhafMarketPlaceLib.BuyTypes",
        "numberOfBytes": "1"
      },
      "t_mapping(t_address,t_mapping(t_uint256,t_array(t_struct(Bid)1368_storage)dyn_storage))": {
        "encoding": "mapping",
        "key": "t_address",
        "label": "mapping(address => mapping(uint256 => struct GhafMarketPlaceLib.Bid[]))",
        "numberOfBytes": "32",
        "value": "t_mapping(t_uint256,t_array(t_struct(Bid)1368_storage)dyn_storage)"
      },
      "t_mapping(t_address,t_mapping(t_uint256,t_struct(Nft)1359_storage))": {
        "encoding": "mapping",
        "key": "t_address",
        "label": "mapping(address => mapping(uint256 => struct GhafMarketPlaceLib.Nft))",
        "numberOfBytes": "32",
        "value": "t_mapping(t_uint256,t_struct(Nft)1359_storage)"
      },
      "t_mapping(t_uint256,t_array(t_struct(Bid)1368_storage)dyn_storage)": {
        "encoding": "mapping",
        "key": "t_uint256",
        "label": "mapping(uint256 => struct GhafMarketPlaceLib.Bid[])",
        "numberOfBytes": "32",
        "value": "t_array(t_struct(Bid)1368_storage)dyn_storage"
      },
      "t_mapping(t_uint256,t_struct(Nft)1359_storage)": {
        "encoding": "mapping",
        "key": "t_uint256",
        "label": "mapping(uint256 => struct GhafMarketPlaceLib.Nft)",
        "numberOfBytes": "32",
        "value": "t_struct(Nft)1359_storage"
      },
      "t_struct(Bid)1368_storage": {
        "encoding": "inplace",
        "label": "struct GhafMarketPlaceLib.Bid",
        "members": [
          {
            "astId": 1361,
            "contract": "contracts/GhafMarketplace/GhafMarketPlaceLogic.sol:GhafMarketPlaceLogic",
            "label": "buyer",
            "offset": 0,
            "slot": "0",
            "type": "t_address"
          },
          {
            "astId": 1363,
            "contract": "contracts/GhafMarketplace/GhafMarketPlaceLogic.sol:GhafMarketPlaceLogic",
            "label": "bidAmount",
            "offset": 0,
            "slot": "1",
            "type": "t_uint256"
          },
          {
            "astId": 1365,
            "contract": "contracts/GhafMarketplace/GhafMarketPlaceLogic.sol:GhafMarketPlaceLogic",
            "label": "isAccepted",
            "offset": 0,
            "slot": "2",
            "type": "t_bool"
          },
          {
            "astId": 1367,
            "contract": "contracts/GhafMarketplace/GhafMarketPlaceLogic.sol:GhafMarketPlaceLogic",
            "label": "paymentToken",
            "offset": 1,
            "slot": "2",
            "type": "t_address"
          }
        ],
        "numberOfBytes": "96"
      },
      "t_struct(Nft)1359_storage": {
        "encoding": "inplace",
        "label": "struct GhafMarketPlaceLib.Nft",
        "members": [
          {
            "astId": 1343,
            "contract": "contracts/GhafMarketplace/GhafMarketPlaceLogic.sol:GhafMarketPlaceLogic",
            "label": "seller",
            "offset": 0,
            "slot": "0",
            "type": "t_address"
          },
          {
            "astId": 1345,
            "contract": "contracts/GhafMarketplace/GhafMarketPlaceLogic.sol:GhafMarketPlaceLogic",
            "label": "isSold",
            "offset": 20,
            "slot": "0",
            "type": "t_bool"
          },
          {
            "astId": 1347,
            "contract": "contracts/GhafMarketplace/GhafMarketPlaceLogic.sol:GhafMarketPlaceLogic",
            "label": "hasAccepted",
            "offset": 21,
            "slot": "0",
            "type": "t_bool"
          },
          {
            "astId": 1349,
            "contract": "contracts/GhafMarketplace/GhafMarketPlaceLogic.sol:GhafMarketPlaceLogic",
            "label": "isListed",
            "offset": 22,
            "slot": "0",
            "type": "t_bool"
          },
          {
            "astId": 1351,
            "contract": "contracts/GhafMarketplace/GhafMarketPlaceLogic.sol:GhafMarketPlaceLogic",
            "label": "deadline",
            "offset": 0,
            "slot": "1",
            "type": "t_uint256"
          },
          {
            "astId": 1354,
            "contract": "contracts/GhafMarketplace/GhafMarketPlaceLogic.sol:GhafMarketPlaceLogic",
            "label": "buyType",
            "offset": 0,
            "slot": "2",
            "type": "t_enum(BuyTypes)1341"
          },
          {
            "astId": 1356,
            "contract": "contracts/GhafMarketplace/GhafMarketPlaceLogic.sol:GhafMarketPlaceLogic",
            "label": "initialAmount",
            "offset": 0,
            "slot": "3",
            "type": "t_uint256"
          },
          {
            "astId": 1358,
            "contract": "contracts/GhafMarketplace/GhafMarketPlaceLogic.sol:GhafMarketPlaceLogic",
            "label": "initialPaymentToken",
            "offset": 0,
            "slot": "4",
            "type": "t_address"
          }
        ],
        "numberOfBytes": "160"
      },
      "t_uint256": {
        "encoding": "inplace",
        "label": "uint256",
        "numberOfBytes": "32"
      },
      "t_uint8": {
        "encoding": "inplace",
        "label": "uint8",
        "numberOfBytes": "1"
      }
    }
  }
}