{
  "address": "0x9471a8FdA92159575095ebA719e850E01d78fd6D",
  "abi": [
    {
      "anonymous": false,
      "inputs": [
        {
          "indexed": false,
          "internalType": "address",
          "name": "nftContractAddress",
          "type": "address"
        },
        {
          "indexed": true,
          "internalType": "uint256",
          "name": "tokenId",
          "type": "uint256"
        },
        {
          "indexed": false,
          "internalType": "address",
          "name": "seller",
          "type": "address"
        }
      ],
      "name": "AuctionCancelled",
      "type": "event"
    },
    {
      "anonymous": false,
      "inputs": [
        {
          "indexed": false,
          "internalType": "address",
          "name": "seller",
          "type": "address"
        },
        {
          "indexed": false,
          "internalType": "address",
          "name": "owner",
          "type": "address"
        },
        {
          "indexed": false,
          "internalType": "uint256",
          "name": "initialPrice",
          "type": "uint256"
        },
        {
          "indexed": false,
          "internalType": "address",
          "name": "highestBidder",
          "type": "address"
        },
        {
          "indexed": false,
          "internalType": "uint256",
          "name": "highestBid",
          "type": "uint256"
        },
        {
          "indexed": false,
          "internalType": "uint256",
          "name": "closeTimestamp",
          "type": "uint256"
        },
        {
          "indexed": true,
          "internalType": "uint256",
          "name": "tokenId",
          "type": "uint256"
        },
        {
          "indexed": false,
          "internalType": "address",
          "name": "nftContractAddress",
          "type": "address"
        }
      ],
      "name": "AuctionCreated",
      "type": "event"
    },
    {
      "anonymous": false,
      "inputs": [
        {
          "indexed": false,
          "internalType": "address",
          "name": "nftContractAddress",
          "type": "address"
        },
        {
          "indexed": true,
          "internalType": "uint256",
          "name": "tokenId",
          "type": "uint256"
        },
        {
          "indexed": false,
          "internalType": "address",
          "name": "finisher",
          "type": "address"
        },
        {
          "indexed": false,
          "internalType": "address",
          "name": "highestBidder",
          "type": "address"
        },
        {
          "indexed": false,
          "internalType": "uint256",
          "name": "highestBid",
          "type": "uint256"
        }
      ],
      "name": "AuctionFinished",
      "type": "event"
    },
    {
      "anonymous": false,
      "inputs": [
        {
          "indexed": false,
          "internalType": "address",
          "name": "bidder",
          "type": "address"
        },
        {
          "indexed": false,
          "internalType": "uint256",
          "name": "bidPrice",
          "type": "uint256"
        },
        {
          "indexed": true,
          "internalType": "uint256",
          "name": "tokenId",
          "type": "uint256"
        },
        {
          "indexed": false,
          "internalType": "address",
          "name": "nftContractAddress",
          "type": "address"
        }
      ],
      "name": "BidCreated",
      "type": "event"
    },
    {
      "anonymous": false,
      "inputs": [
        {
          "indexed": true,
          "internalType": "address",
          "name": "previousOwner",
          "type": "address"
        },
        {
          "indexed": true,
          "internalType": "address",
          "name": "newOwner",
          "type": "address"
        }
      ],
      "name": "OwnershipTransferred",
      "type": "event"
    },
    {
      "inputs": [
        {
          "internalType": "address",
          "name": "",
          "type": "address"
        },
        {
          "internalType": "uint256",
          "name": "",
          "type": "uint256"
        }
      ],
      "name": "auctions",
      "outputs": [
        {
          "internalType": "address",
          "name": "seller",
          "type": "address"
        },
        {
          "internalType": "address",
          "name": "owner",
          "type": "address"
        },
        {
          "internalType": "uint256",
          "name": "initialPrice",
          "type": "uint256"
        },
        {
          "internalType": "address",
          "name": "highestBidder",
          "type": "address"
        },
        {
          "internalType": "uint256",
          "name": "highestBid",
          "type": "uint256"
        },
        {
          "internalType": "uint256",
          "name": "closeTimestamp",
          "type": "uint256"
        },
        {
          "internalType": "uint256",
          "name": "tokenId",
          "type": "uint256"
        },
        {
          "internalType": "address",
          "name": "nftContractAddress",
          "type": "address"
        }
      ],
      "stateMutability": "view",
      "type": "function"
    },
    {
      "inputs": [
        {
          "internalType": "address",
          "name": "_nftContractAddress",
          "type": "address"
        },
        {
          "internalType": "uint256",
          "name": "_tokenId",
          "type": "uint256"
        },
        {
          "internalType": "uint256",
          "name": "_bidPrice",
          "type": "uint256"
        }
      ],
      "name": "bidForNFT",
      "outputs": [
        {
          "internalType": "bool",
          "name": "",
          "type": "bool"
        }
      ],
      "stateMutability": "payable",
      "type": "function"
    },
    {
      "inputs": [
        {
          "internalType": "address",
          "name": "_nftContractAddress",
          "type": "address"
        },
        {
          "internalType": "uint256",
          "name": "_tokenId",
          "type": "uint256"
        }
      ],
      "name": "cancelAuction",
      "outputs": [
        {
          "internalType": "bool",
          "name": "success",
          "type": "bool"
        }
      ],
      "stateMutability": "payable",
      "type": "function"
    },
    {
      "inputs": [
        {
          "internalType": "address",
          "name": "_nftContractAddress",
          "type": "address"
        },
        {
          "internalType": "uint256",
          "name": "_tokenId",
          "type": "uint256"
        }
      ],
      "name": "finishAuction",
      "outputs": [
        {
          "internalType": "bool",
          "name": "",
          "type": "bool"
        }
      ],
      "stateMutability": "payable",
      "type": "function"
    },
    {
      "inputs": [
        {
          "internalType": "address",
          "name": "_nftContractAddress",
          "type": "address"
        },
        {
          "internalType": "uint256",
          "name": "_tokenId",
          "type": "uint256"
        }
      ],
      "name": "getAuctionDetails",
      "outputs": [
        {
          "components": [
            {
              "internalType": "address",
              "name": "seller",
              "type": "address"
            },
            {
              "internalType": "address",
              "name": "owner",
              "type": "address"
            },
            {
              "internalType": "uint256",
              "name": "initialPrice",
              "type": "uint256"
            },
            {
              "internalType": "address",
              "name": "highestBidder",
              "type": "address"
            },
            {
              "internalType": "uint256",
              "name": "highestBid",
              "type": "uint256"
            },
            {
              "internalType": "uint256",
              "name": "closeTimestamp",
              "type": "uint256"
            },
            {
              "internalType": "uint256",
              "name": "tokenId",
              "type": "uint256"
            },
            {
              "internalType": "address",
              "name": "nftContractAddress",
              "type": "address"
            }
          ],
          "internalType": "struct IGhafNftMarketPlace.Auction",
          "name": "auction",
          "type": "tuple"
        }
      ],
      "stateMutability": "view",
      "type": "function"
    },
    {
      "inputs": [
        {
          "internalType": "address",
          "name": "_nftContractAddress",
          "type": "address"
        },
        {
          "internalType": "uint256",
          "name": "_tokenId",
          "type": "uint256"
        },
        {
          "internalType": "uint256",
          "name": "_initialPrice",
          "type": "uint256"
        },
        {
          "internalType": "uint256",
          "name": "_auctionDuration",
          "type": "uint256"
        }
      ],
      "name": "listMyNFTToSale",
      "outputs": [
        {
          "internalType": "bool",
          "name": "",
          "type": "bool"
        }
      ],
      "stateMutability": "nonpayable",
      "type": "function"
    },
    {
      "inputs": [],
      "name": "owner",
      "outputs": [
        {
          "internalType": "address",
          "name": "",
          "type": "address"
        }
      ],
      "stateMutability": "view",
      "type": "function"
    },
    {
      "inputs": [],
      "name": "renounceOwnership",
      "outputs": [],
      "stateMutability": "nonpayable",
      "type": "function"
    },
    {
      "inputs": [
        {
          "internalType": "address",
          "name": "newOwner",
          "type": "address"
        }
      ],
      "name": "transferOwnership",
      "outputs": [],
      "stateMutability": "nonpayable",
      "type": "function"
    }
  ],
  "transactionHash": "0xb18fe6717d069a5517fec9c8806f4ef7a875840f57ccab5b19d314b29f2320cf",
  "args": [],
  "numDeployments": 1,
  "solcInputHash": "be92c100721332835fe7376d5def709d",
  "bytecode": "0x608060405234801561001057600080fd5b5061001a3361001f565b61006f565b600080546001600160a01b038381166001600160a01b0319831681178455604051919092169283917f8be0079c531659141344cd1fd0a4f28419497f9722a3daafe3b4186f6b6457e09190a35050565b6111988061007e6000396000f3fe6080604052600436106100865760003560e01c8063857c7b5e11610059578063857c7b5e14610229578063859b97fe1461023c5780638da5cb5b1461024f578063a3ed5be614610277578063f2fde38b1461028a57600080fd5b80630cd87c681461008b5780631bc010b51461012057806344f91c1e14610150578063715018a614610212575b600080fd5b34801561009757600080fd5b506100ab6100a636600461102a565b6102aa565b604051610117919081516001600160a01b039081168252602080840151821690830152604080840151908301526060808401518216908301526080808401519083015260a0838101519083015260c0808401519083015260e09283015116918101919091526101000190565b60405180910390f35b34801561012c57600080fd5b5061014061013b366004611054565b61036b565b6040519015158152602001610117565b34801561015c57600080fd5b506101c861016b36600461102a565b60016020818152600093845260408085209091529183529120805491810154600282015460038301546004840154600585015460068601546007909601546001600160a01b03978816979586169694959384169492939192911688565b604080516001600160a01b03998a16815297891660208901528701959095529286166060860152608085019190915260a084015260c083015290911660e082015261010001610117565b34801561021e57600080fd5b5061022761059d565b005b61014061023736600461108d565b6105b1565b61014061024a36600461102a565b610890565b34801561025b57600080fd5b506000546040516001600160a01b039091168152602001610117565b61014061028536600461102a565b610b19565b34801561029657600080fd5b506102276102a53660046110c0565b610d64565b6102b2610fa5565b826001600160a01b0381166102e25760405162461bcd60e51b81526004016102d9906110e2565b60405180910390fd5b50506001600160a01b039182166000908152600160208181526040808420948452938152918390208351610100810185528154861681529181015485169282019290925260028201549281019290925260038101548316606083015260048101546080830152600581015460a0830152600681015460c08301526007015490911660e082015290565b6000846001600160a01b0381166103945760405162461bcd60e51b81526004016102d9906110e2565b83600081116103e55760405162461bcd60e51b815260206004820152601e60248201527f476861664e66744d61726b6574506c6163653a207a65726f2076616c7565000060448201526064016102d9565b6040516323b872dd60e01b81526001600160a01b038816906323b872dd9061041590339030908b90600401611117565b600060405180830381600087803b15801561042f57600080fd5b505af1158015610443573d6000803e3d6000fd5b5050505061044f610fa5565b33815230602082015260408101869052610469854261113b565b60a082019081526001600160a01b03808a1660009081526001602081815260408084208d8552825292839020865181548187166001600160a01b031991821617835592880151938201805485881690851617905584880151600283018190556060890151600384018054828a1690871617905560808a01516004850181905598516005850181905560c08b01516006860181905560e08c0151600790960180549a87169a90971699909917909555955196977fde3c204494cc4366a9f971bd11df087a500d8363a03685c69521004da52fc3fd97610587979396959294919291906001600160a01b039788168152958716602087015260408601949094529185166060850152608084015260a083015290911660c082015260e00190565b60405180910390a2506001979650505050505050565b6105a5610ddd565b6105af6000610e37565b565b6000836001600160a01b0381166105da5760405162461bcd60e51b81526004016102d9906110e2565b826000811161062b5760405162461bcd60e51b815260206004820152601e60248201527f476861664e66744d61726b6574506c6163653a207a65726f2076616c7565000060448201526064016102d9565b6001600160a01b0380871660009081526001602081815260408084208a85528252928390208351610100810185528154861681529281015485169183019190915260028101549282019290925260038201548316606082015260048201546080820152600582015460a08201819052600683015460c083015260079092015490921660e083015242106106f45760405162461bcd60e51b8152602060048201526011602482015270185d58dd1a5bdb881a5cc818db1bdcd959607a1b60448201526064016102d9565b80608001518511801561070b575080604001518510155b61074a5760405162461bcd60e51b815260206004820152601060248201526f626964207072696365206973206c6f7760801b60448201526064016102d9565b8434146107db5760405162461bcd60e51b815260206004820152605360248201527f706c65617365207375626d6974207468652061736b696e67207072696365206960448201527f6e206f7264657220746f20636f6d706c65746520746865206269642c20696e636064820152726f6d70617469626c65206d73672076616c756560681b608482015260a4016102d9565b60608101516001600160a01b0316156108005761080081606001518260800151610e87565b6001600160a01b03871660008181526001602090815260408083208a84528252918290206003810180546001600160a01b0319163390811790915560049091018990558251908152908101889052808201929092525187917ff45e391a3dce1c0ecbf18142101402277c0e549b92722f631c21cc2f0857b656919081900360600190a25060019695505050505050565b6000826001600160a01b0381166108b95760405162461bcd60e51b81526004016102d9906110e2565b6001600160a01b038481166000908152600160208181526040808420888552825292839020835161010081018552815486168082529382015486169281019290925260028101549382019390935260038301548416606082015260048301546080820152600583015460a0820152600683015460c082015260079092015490921660e08201529033146109875760405162461bcd60e51b81526020600482015260166024820152751bdb9b1e481cd95b1b195c8818d85b8818d85b98d95b60521b60448201526064016102d9565b8060a0015142106109ce5760405162461bcd60e51b8152602060048201526011602482015270185d58dd1a5bdb881a5cc818db1bdcd959607a1b60448201526064016102d9565b60608101516001600160a01b0316156109f3576109f381606001518260800151610e87565b80516040516323b872dd60e01b81526001600160a01b038716916323b872dd91610a239130918990600401611117565b600060405180830381600087803b158015610a3d57600080fd5b505af1158015610a51573d6000803e3d6000fd5b50505050837f81ac9b9393c688a58e4829f289ada7a9a0ef6b193b25950986416ef84025becd86610a7f3390565b604080516001600160a01b039384168152929091166020830152015b60405180910390a25050506001600160a01b0391909116600090815260016020818152604080842094845293905291812080546001600160a01b031990811682558184018054821690556002820183905560038201805482169055600482018390556005820183905560068201929092556007018054909116905590565b6000826001600160a01b038116610b425760405162461bcd60e51b81526004016102d9906110e2565b6001600160a01b0380851660009081526001602081815260408084208885528252928390208351610100810185528154861681529281015485169183019190915260028101549282019290925260038201548316606082015260048201546080820152600582015460a08201819052600683015460c083015260079092015490921660e08301524211610c175760405162461bcd60e51b815260206004820152601960248201527f61756374696f6e206973206e6f7420636c6f736564207965740000000000000060448201526064016102d9565b60608101516001600160a01b031615610ca657610c3c81600001518260800151610e87565b60608101516040516323b872dd60e01b81526001600160a01b038716916323b872dd91610c6f9130918990600401611117565b600060405180830381600087803b158015610c8957600080fd5b505af1158015610c9d573d6000803e3d6000fd5b50505050610d09565b80516040516323b872dd60e01b81526001600160a01b038716916323b872dd91610cd69130918990600401611117565b600060405180830381600087803b158015610cf057600080fd5b505af1158015610d04573d6000803e3d6000fd5b505050505b606081810151608080840151604080516001600160a01b03808c168252336020830152909416908401529282019290925285917f77720fd952a80dc4ee2bb00dcaa69bb9eb3d9f04493afdd1fa6bc510318d112c9101610a9b565b610d6c610ddd565b6001600160a01b038116610dd15760405162461bcd60e51b815260206004820152602660248201527f4f776e61626c653a206e6577206f776e657220697320746865207a65726f206160448201526564647265737360d01b60648201526084016102d9565b610dda81610e37565b50565b6000546001600160a01b031633146105af5760405162461bcd60e51b815260206004820181905260248201527f4f776e61626c653a2063616c6c6572206973206e6f7420746865206f776e657260448201526064016102d9565b600080546001600160a01b038381166001600160a01b0319831681178455604051919092169283917f8be0079c531659141344cd1fd0a4f28419497f9722a3daafe3b4186f6b6457e09190a35050565b80471015610ed75760405162461bcd60e51b815260206004820152601d60248201527f416464726573733a20696e73756666696369656e742062616c616e636500000060448201526064016102d9565b6000826001600160a01b03168260405160006040518083038185875af1925050503d8060008114610f24576040519150601f19603f3d011682016040523d82523d6000602084013e610f29565b606091505b5050905080610fa05760405162461bcd60e51b815260206004820152603a60248201527f416464726573733a20756e61626c6520746f2073656e642076616c75652c207260448201527f6563697069656e74206d6179206861766520726576657274656400000000000060648201526084016102d9565b505050565b60405180610100016040528060006001600160a01b0316815260200160006001600160a01b031681526020016000815260200160006001600160a01b0316815260200160008152602001600081526020016000815260200160006001600160a01b031681525090565b80356001600160a01b038116811461102557600080fd5b919050565b6000806040838503121561103d57600080fd5b6110468361100e565b946020939093013593505050565b6000806000806080858703121561106a57600080fd5b6110738561100e565b966020860135965060408601359560600135945092505050565b6000806000606084860312156110a257600080fd5b6110ab8461100e565b95602085013595506040909401359392505050565b6000602082840312156110d257600080fd5b6110db8261100e565b9392505050565b6020808252818101527f476861664e66744d61726b6574506c6163653a207a65726f2061646472657373604082015260600190565b6001600160a01b039384168152919092166020820152604081019190915260600190565b8082018082111561115c57634e487b7160e01b600052601160045260246000fd5b9291505056fea26469706673582212208a4ed8176f34e46f1b1f0accc7bd27aef0bd7c747ba0afbc60a41e8b9b34a49c64736f6c63430008110033",
  "devdoc": {
    "kind": "dev",
    "methods": {
      "bidForNFT(address,uint256,uint256)": {
        "details": "Submit the asking price in order to complete the bid on ( msg value )",
        "params": {
          "_bidPrice": "The price that is bigger than the initial price and last bid price is on this action",
          "_nftContractAddress": "Address of NFT token contract",
          "_tokenId": "A number that identify the NFT within the NFT token contract"
        }
      },
      "cancelAuction(address,uint256)": {
        "details": "Only seller can cancel",
        "params": {
          "_nftContractAddress": "Address of NFT token contract",
          "_tokenId": "A number that identify the NFT within the NFT token contract"
        }
      },
      "finishAuction(address,uint256)": {
        "details": "Only seller can cancel , Call this func after auction is closed",
        "params": {
          "_nftContractAddress": "Address of NFT token contract",
          "_tokenId": "A number that identify the NFT within the NFT token contract"
        }
      },
      "getAuctionDetails(address,uint256)": {
        "params": {
          "_nftContractAddress": "Address of NFT token contract",
          "_tokenId": "A number that identify the NFT within the NFT token contract"
        }
      },
      "listMyNFTToSale(address,uint256,uint256,uint256)": {
        "details": "Call approve function of Nft Contract before the call this func",
        "params": {
          "_auctionDuration": "The period of time (timestamp) each user can bid on an action",
          "_initialPrice": "The initial price value that can be bid on an action",
          "_nftContractAddress": "Address of NFT token contract",
          "_tokenId": "A number that identify the NFT within the NFT token contract"
        },
        "returns": {
          "_0": "True if auction is added successfully"
        }
      },
      "owner()": {
        "details": "Returns the address of the current owner."
      },
      "renounceOwnership()": {
        "details": "Leaves the contract without owner. It will not be possible to call `onlyOwner` functions anymore. Can only be called by the current owner. NOTE: Renouncing ownership will leave the contract without an owner, thereby removing any functionality that is only available to the owner."
      },
      "transferOwnership(address)": {
        "details": "Transfers ownership of the contract to a new account (`newOwner`). Can only be called by the current owner."
      }
    },
    "version": 1
  },
  "userdoc": {
    "kind": "user",
    "methods": {
      "bidForNFT(address,uint256,uint256)": {
        "notice": "Bid on an auction to get a NFT"
      },
      "cancelAuction(address,uint256)": {
        "notice": "Cancel an auction"
      },
      "finishAuction(address,uint256)": {
        "notice": "Finish an auction"
      },
      "getAuctionDetails(address,uint256)": {
        "notice": "Returns an auction details"
      },
      "listMyNFTToSale(address,uint256,uint256,uint256)": {
        "notice": "List NFT to auction List for sale"
      }
    },
    "version": 1
  },
  "storageLayout": {
    "storage": [
      {
        "astId": 7,
        "contract": "contracts/Marketplace/GhafNftMarketPlace.sol:GhafNftMarketPlace",
        "label": "_owner",
        "offset": 0,
        "slot": "0",
        "type": "t_address"
      },
      {
        "astId": 3011,
        "contract": "contracts/Marketplace/GhafNftMarketPlace.sol:GhafNftMarketPlace",
        "label": "auctions",
        "offset": 0,
        "slot": "1",
        "type": "t_mapping(t_address,t_mapping(t_uint256,t_struct(Auction)3456_storage))"
      }
    ],
    "types": {
      "t_address": {
        "encoding": "inplace",
        "label": "address",
        "numberOfBytes": "20"
      },
      "t_mapping(t_address,t_mapping(t_uint256,t_struct(Auction)3456_storage))": {
        "encoding": "mapping",
        "key": "t_address",
        "label": "mapping(address => mapping(uint256 => struct IGhafNftMarketPlace.Auction))",
        "numberOfBytes": "32",
        "value": "t_mapping(t_uint256,t_struct(Auction)3456_storage)"
      },
      "t_mapping(t_uint256,t_struct(Auction)3456_storage)": {
        "encoding": "mapping",
        "key": "t_uint256",
        "label": "mapping(uint256 => struct IGhafNftMarketPlace.Auction)",
        "numberOfBytes": "32",
        "value": "t_struct(Auction)3456_storage"
      },
      "t_struct(Auction)3456_storage": {
        "encoding": "inplace",
        "label": "struct IGhafNftMarketPlace.Auction",
        "members": [
          {
            "astId": 3441,
            "contract": "contracts/Marketplace/GhafNftMarketPlace.sol:GhafNftMarketPlace",
            "label": "seller",
            "offset": 0,
            "slot": "0",
            "type": "t_address"
          },
          {
            "astId": 3443,
            "contract": "contracts/Marketplace/GhafNftMarketPlace.sol:GhafNftMarketPlace",
            "label": "owner",
            "offset": 0,
            "slot": "1",
            "type": "t_address"
          },
          {
            "astId": 3445,
            "contract": "contracts/Marketplace/GhafNftMarketPlace.sol:GhafNftMarketPlace",
            "label": "initialPrice",
            "offset": 0,
            "slot": "2",
            "type": "t_uint256"
          },
          {
            "astId": 3447,
            "contract": "contracts/Marketplace/GhafNftMarketPlace.sol:GhafNftMarketPlace",
            "label": "highestBidder",
            "offset": 0,
            "slot": "3",
            "type": "t_address"
          },
          {
            "astId": 3449,
            "contract": "contracts/Marketplace/GhafNftMarketPlace.sol:GhafNftMarketPlace",
            "label": "highestBid",
            "offset": 0,
            "slot": "4",
            "type": "t_uint256"
          },
          {
            "astId": 3451,
            "contract": "contracts/Marketplace/GhafNftMarketPlace.sol:GhafNftMarketPlace",
            "label": "closeTimestamp",
            "offset": 0,
            "slot": "5",
            "type": "t_uint256"
          },
          {
            "astId": 3453,
            "contract": "contracts/Marketplace/GhafNftMarketPlace.sol:GhafNftMarketPlace",
            "label": "tokenId",
            "offset": 0,
            "slot": "6",
            "type": "t_uint256"
          },
          {
            "astId": 3455,
            "contract": "contracts/Marketplace/GhafNftMarketPlace.sol:GhafNftMarketPlace",
            "label": "nftContractAddress",
            "offset": 0,
            "slot": "7",
            "type": "t_address"
          }
        ],
        "numberOfBytes": "256"
      },
      "t_uint256": {
        "encoding": "inplace",
        "label": "uint256",
        "numberOfBytes": "32"
      }
    }
  }
}